{
	"FundMe.sol": {
		"fundMe": {
			"abi": [
				{
					"inputs": [],
					"stateMutability": "nonpayable",
					"type": "constructor"
				},
				{
					"inputs": [],
					"name": "notOwner",
					"type": "error"
				},
				{
					"stateMutability": "payable",
					"type": "fallback"
				},
				{
					"inputs": [],
					"name": "MINIMUM_USD",
					"outputs": [
						{
							"internalType": "uint256",
							"name": "",
							"type": "uint256"
						}
					],
					"stateMutability": "view",
					"type": "function"
				},
				{
					"inputs": [
						{
							"internalType": "address",
							"name": "funder",
							"type": "address"
						}
					],
					"name": "addressToAmountFunded",
					"outputs": [
						{
							"internalType": "uint256",
							"name": "amountFunded",
							"type": "uint256"
						}
					],
					"stateMutability": "view",
					"type": "function"
				},
				{
					"inputs": [],
					"name": "fund",
					"outputs": [],
					"stateMutability": "payable",
					"type": "function"
				},
				{
					"inputs": [
						{
							"internalType": "uint256",
							"name": "",
							"type": "uint256"
						}
					],
					"name": "funders",
					"outputs": [
						{
							"internalType": "address",
							"name": "",
							"type": "address"
						}
					],
					"stateMutability": "view",
					"type": "function"
				},
				{
					"inputs": [],
					"name": "i_owner",
					"outputs": [
						{
							"internalType": "address",
							"name": "",
							"type": "address"
						}
					],
					"stateMutability": "view",
					"type": "function"
				},
				{
					"inputs": [],
					"name": "result",
					"outputs": [
						{
							"internalType": "uint256",
							"name": "",
							"type": "uint256"
						}
					],
					"stateMutability": "view",
					"type": "function"
				},
				{
					"inputs": [],
					"name": "withdraw",
					"outputs": [],
					"stateMutability": "nonpayable",
					"type": "function"
				},
				{
					"stateMutability": "payable",
					"type": "receive"
				}
			],
			"devdoc": {
				"kind": "dev",
				"methods": {},
				"version": 1
			},
			"evm": {
				"assembly": "    /* \"FundMe.sol\":290:2162  contract fundMe{... */\n  mstore(0x40, 0xa0)\n    /* \"FundMe.sol\":608:661  constructor() {... */\n  callvalue\n  dup1\n  iszero\n  tag_1\n  jumpi\n  0x00\n  dup1\n  revert\ntag_1:\n  pop\n    /* \"FundMe.sol\":643:653  msg.sender */\n  caller\n    /* \"FundMe.sol\":633:653  i_owner = msg.sender */\n  0xffffffffffffffffffffffffffffffffffffffff\n  and\n  0x80\n  dup2\n  0xffffffffffffffffffffffffffffffffffffffff\n  and\n  dup2\n  mstore\n  pop\n  pop\n    /* \"FundMe.sol\":290:2162  contract fundMe{... */\n  mload(0x80)\n  codecopy(0x00, dataOffset(sub_0), dataSize(sub_0))\n  0x00\n  assignImmutable(\"0xcc143a676b82d5e07b2c9d57717b403ab3c58caa273a42cdb95b15980141a86c\")\n  return(0x00, dataSize(sub_0))\nstop\n\nsub_0: assembly {\n        /* \"FundMe.sol\":290:2162  contract fundMe{... */\n      mstore(0x40, 0x80)\n      jumpi(tag_1, lt(calldatasize, 0x04))\n      shr(0xe0, calldataload(0x00))\n      dup1\n      0x6b69a592\n      gt\n      tag_10\n      jumpi\n      dup1\n      0x6b69a592\n      eq\n      tag_6\n      jumpi\n      dup1\n      0xb60d4288\n      eq\n      tag_7\n      jumpi\n      dup1\n      0xdba6335f\n      eq\n      tag_8\n      jumpi\n      dup1\n      0xdc0d3dff\n      eq\n      tag_9\n      jumpi\n      jump(tag_2)\n    tag_10:\n      dup1\n      0x3ccfd60b\n      eq\n      tag_3\n      jumpi\n      dup1\n      0x3e47d6f3\n      eq\n      tag_4\n      jumpi\n      dup1\n      0x65372147\n      eq\n      tag_5\n      jumpi\n      jump(tag_2)\n    tag_1:\n      jumpi(tag_2, calldatasize)\n        /* \"FundMe.sol\":2076:2077  1 */\n      0x01\n        /* \"FundMe.sol\":2068:2074  result */\n      0x02\n        /* \"FundMe.sol\":2068:2077  result= 1 */\n      dup2\n      swap1\n      sstore\n      stop\n        /* \"FundMe.sol\":290:2162  contract fundMe{... */\n    tag_2:\n        /* \"FundMe.sol\":2143:2144  2 */\n      0x02\n        /* \"FundMe.sol\":2134:2140  result */\n      dup1\n        /* \"FundMe.sol\":2134:2144  result = 2 */\n      dup2\n      swap1\n      sstore\n      stop\n        /* \"FundMe.sol\":894:1751  function withdraw() public onlyOwner {... */\n    tag_3:\n      callvalue\n      dup1\n      iszero\n      tag_15\n      jumpi\n      0x00\n      dup1\n      revert\n    tag_15:\n      pop\n      tag_16\n      tag_17\n      jump\t// in\n    tag_16:\n      stop\n        /* \"FundMe.sol\":442:518  mapping(address funder => uint256 amountFunded) public addressToAmountFunded */\n    tag_4:\n      callvalue\n      dup1\n      iszero\n      tag_18\n      jumpi\n      0x00\n      dup1\n      revert\n    tag_18:\n      pop\n      tag_19\n      0x04\n      dup1\n      calldatasize\n      sub\n      dup2\n      add\n      swap1\n      tag_20\n      swap2\n      swap1\n      tag_21\n      jump\t// in\n    tag_20:\n      tag_22\n      jump\t// in\n    tag_19:\n      mload(0x40)\n      tag_23\n      swap2\n      swap1\n      tag_24\n      jump\t// in\n    tag_23:\n      mload(0x40)\n      dup1\n      swap2\n      sub\n      swap1\n      return\n        /* \"FundMe.sol\":2000:2021  uint256 public result */\n    tag_5:\n      callvalue\n      dup1\n      iszero\n      tag_25\n      jumpi\n      0x00\n      dup1\n      revert\n    tag_25:\n      pop\n      tag_26\n      tag_27\n      jump\t// in\n    tag_26:\n      mload(0x40)\n      tag_28\n      swap2\n      swap1\n      tag_24\n      jump\t// in\n    tag_28:\n      mload(0x40)\n      dup1\n      swap2\n      sub\n      swap1\n      return\n        /* \"FundMe.sol\":355:402  uint256 public constant MINIMUM_USD = 50 * 1e18 */\n    tag_6:\n      callvalue\n      dup1\n      iszero\n      tag_29\n      jumpi\n      0x00\n      dup1\n      revert\n    tag_29:\n      pop\n      tag_30\n      tag_31\n      jump\t// in\n    tag_30:\n      mload(0x40)\n      tag_32\n      swap2\n      swap1\n      tag_24\n      jump\t// in\n    tag_32:\n      mload(0x40)\n      dup1\n      swap2\n      sub\n      swap1\n      return\n        /* \"FundMe.sol\":669:886  function fund() public payable {... */\n    tag_7:\n      tag_33\n      tag_34\n      jump\t// in\n    tag_33:\n      stop\n        /* \"FundMe.sol\":527:559  address public immutable i_owner */\n    tag_8:\n      callvalue\n      dup1\n      iszero\n      tag_35\n      jumpi\n      0x00\n      dup1\n      revert\n    tag_35:\n      pop\n      tag_36\n      tag_37\n      jump\t// in\n    tag_36:\n      mload(0x40)\n      tag_38\n      swap2\n      swap1\n      tag_39\n      jump\t// in\n    tag_38:\n      mload(0x40)\n      dup1\n      swap2\n      sub\n      swap1\n      return\n        /* \"FundMe.sol\":411:435  address[] public funders */\n    tag_9:\n      callvalue\n      dup1\n      iszero\n      tag_40\n      jumpi\n      0x00\n      dup1\n      revert\n    tag_40:\n      pop\n      tag_41\n      0x04\n      dup1\n      calldatasize\n      sub\n      dup2\n      add\n      swap1\n      tag_42\n      swap2\n      swap1\n      tag_43\n      jump\t// in\n    tag_42:\n      tag_44\n      jump\t// in\n    tag_41:\n      mload(0x40)\n      tag_45\n      swap2\n      swap1\n      tag_39\n      jump\t// in\n    tag_45:\n      mload(0x40)\n      dup1\n      swap2\n      sub\n      swap1\n      return\n        /* \"FundMe.sol\":894:1751  function withdraw() public onlyOwner {... */\n    tag_17:\n        /* \"FundMe.sol\":1946:1953  i_owner */\n      immutable(\"0xcc143a676b82d5e07b2c9d57717b403ab3c58caa273a42cdb95b15980141a86c\")\n        /* \"FundMe.sol\":1932:1953  msg.sender != i_owner */\n      0xffffffffffffffffffffffffffffffffffffffff\n      and\n        /* \"FundMe.sol\":1932:1942  msg.sender */\n      caller\n        /* \"FundMe.sol\":1932:1953  msg.sender != i_owner */\n      0xffffffffffffffffffffffffffffffffffffffff\n      and\n      eq\n        /* \"FundMe.sol\":1929:1972  if(msg.sender != i_owner) revert notOwner() */\n      tag_47\n      jumpi\n        /* \"FundMe.sol\":1962:1972  notOwner() */\n      mload(0x40)\n      0x251c9d6300000000000000000000000000000000000000000000000000000000\n      dup2\n      mstore\n      0x04\n      add\n      mload(0x40)\n      dup1\n      swap2\n      sub\n      swap1\n      revert\n        /* \"FundMe.sol\":1929:1972  if(msg.sender != i_owner) revert notOwner() */\n    tag_47:\n        /* \"FundMe.sol\":964:971  i_owner */\n      immutable(\"0xcc143a676b82d5e07b2c9d57717b403ab3c58caa273a42cdb95b15980141a86c\")\n        /* \"FundMe.sol\":950:971  msg.sender == i_owner */\n      0xffffffffffffffffffffffffffffffffffffffff\n      and\n        /* \"FundMe.sol\":950:960  msg.sender */\n      caller\n        /* \"FundMe.sol\":950:971  msg.sender == i_owner */\n      0xffffffffffffffffffffffffffffffffffffffff\n      and\n      eq\n        /* \"FundMe.sol\":942:989  require(msg.sender == i_owner, \"Must be owner\") */\n      tag_49\n      jumpi\n      mload(0x40)\n      0x08c379a000000000000000000000000000000000000000000000000000000000\n      dup2\n      mstore\n      0x04\n      add\n      tag_50\n      swap1\n      tag_51\n      jump\t// in\n    tag_50:\n      mload(0x40)\n      dup1\n      swap2\n      sub\n      swap1\n      revert\n    tag_49:\n        /* \"FundMe.sol\":1004:1023  uint256 funderIndex */\n      0x00\n        /* \"FundMe.sol\":1000:1190  for(uint256 funderIndex = 0; funderIndex < funders.length; funderIndex++) {... */\n    tag_52:\n        /* \"FundMe.sol\":1043:1050  funders */\n      0x00\n        /* \"FundMe.sol\":1043:1057  funders.length */\n      dup1\n      sload\n      swap1\n      pop\n        /* \"FundMe.sol\":1029:1040  funderIndex */\n      dup2\n        /* \"FundMe.sol\":1029:1057  funderIndex < funders.length */\n      lt\n        /* \"FundMe.sol\":1000:1190  for(uint256 funderIndex = 0; funderIndex < funders.length; funderIndex++) {... */\n      iszero\n      tag_53\n      jumpi\n        /* \"FundMe.sol\":1089:1103  address funder */\n      0x00\n        /* \"FundMe.sol\":1106:1113  funders */\n      dup1\n        /* \"FundMe.sol\":1114:1125  funderIndex */\n      dup3\n        /* \"FundMe.sol\":1106:1126  funders[funderIndex] */\n      dup2\n      sload\n      dup2\n      lt\n      tag_55\n      jumpi\n      tag_56\n      tag_57\n      jump\t// in\n    tag_56:\n    tag_55:\n      swap1\n      0x00\n      mstore\n      keccak256(0x00, 0x20)\n      add\n      0x00\n      swap1\n      sload\n      swap1\n      0x0100\n      exp\n      swap1\n      div\n      0xffffffffffffffffffffffffffffffffffffffff\n      and\n        /* \"FundMe.sol\":1089:1126  address funder = funders[funderIndex] */\n      swap1\n      pop\n        /* \"FundMe.sol\":1173:1174  0 */\n      0x00\n        /* \"FundMe.sol\":1141:1162  addressToAmountFunded */\n      0x01\n        /* \"FundMe.sol\":1141:1170  addressToAmountFunded[funder] */\n      0x00\n        /* \"FundMe.sol\":1163:1169  funder */\n      dup4\n        /* \"FundMe.sol\":1141:1170  addressToAmountFunded[funder] */\n      0xffffffffffffffffffffffffffffffffffffffff\n      and\n      0xffffffffffffffffffffffffffffffffffffffff\n      and\n      dup2\n      mstore\n      0x20\n      add\n      swap1\n      dup2\n      mstore\n      0x20\n      add\n      0x00\n      keccak256\n        /* \"FundMe.sol\":1141:1174  addressToAmountFunded[funder] = 0 */\n      dup2\n      swap1\n      sstore\n      pop\n        /* \"FundMe.sol\":1074:1190  {... */\n      pop\n        /* \"FundMe.sol\":1059:1072  funderIndex++ */\n      dup1\n      dup1\n      0x01\n      add\n      swap2\n      pop\n      pop\n        /* \"FundMe.sol\":1000:1190  for(uint256 funderIndex = 0; funderIndex < funders.length; funderIndex++) {... */\n      jump(tag_52)\n    tag_53:\n      pop\n        /* \"FundMe.sol\":1244:1245  0 */\n      0x00\n        /* \"FundMe.sol\":1230:1246  new address[](0) */\n      0xffffffffffffffff\n      dup2\n      gt\n      iszero\n      tag_59\n      jumpi\n      tag_60\n      tag_61\n      jump\t// in\n    tag_60:\n    tag_59:\n      mload(0x40)\n      swap1\n      dup1\n      dup3\n      mstore\n      dup1\n      0x20\n      mul\n      0x20\n      add\n      dup3\n      add\n      0x40\n      mstore\n      dup1\n      iszero\n      tag_62\n      jumpi\n      dup2\n      0x20\n      add\n      0x20\n      dup3\n      mul\n      dup1\n      calldatasize\n      dup4\n      calldatacopy\n      dup1\n      dup3\n      add\n      swap2\n      pop\n      pop\n      swap1\n      pop\n    tag_62:\n      pop\n        /* \"FundMe.sol\":1220:1227  funders */\n      0x00\n        /* \"FundMe.sol\":1220:1246  funders = new address[](0) */\n      swap1\n      dup1\n      mload\n      swap1\n      0x20\n      add\n      swap1\n      tag_63\n      swap3\n      swap2\n      swap1\n      tag_64\n      jump\t// in\n    tag_63:\n      pop\n        /* \"FundMe.sol\":1606:1622  bool callSuccess */\n      0x00\n        /* \"FundMe.sol\":1636:1646  msg.sender */\n      caller\n        /* \"FundMe.sol\":1628:1652  payable(msg.sender).call */\n      0xffffffffffffffffffffffffffffffffffffffff\n      and\n        /* \"FundMe.sol\":1660:1681  address(this).balance */\n      selfbalance\n        /* \"FundMe.sol\":1628:1686  payable(msg.sender).call{value: address(this).balance}(\"\") */\n      mload(0x40)\n      tag_65\n      swap1\n      tag_66\n      jump\t// in\n    tag_65:\n      0x00\n      mload(0x40)\n      dup1\n      dup4\n      sub\n      dup2\n      dup6\n      dup8\n      gas\n      call\n      swap3\n      pop\n      pop\n      pop\n      returndatasize\n      dup1\n      0x00\n      dup2\n      eq\n      tag_69\n      jumpi\n      mload(0x40)\n      swap2\n      pop\n      and(add(returndatasize, 0x3f), not(0x1f))\n      dup3\n      add\n      0x40\n      mstore\n      returndatasize\n      dup3\n      mstore\n      returndatasize\n      0x00\n      0x20\n      dup5\n      add\n      returndatacopy\n      jump(tag_68)\n    tag_69:\n      0x60\n      swap2\n      pop\n    tag_68:\n      pop\n        /* \"FundMe.sol\":1605:1686  (bool callSuccess, ) = payable(msg.sender).call{value: address(this).balance}(\"\") */\n      pop\n      swap1\n      pop\n        /* \"FundMe.sol\":1701:1712  callSuccess */\n      dup1\n        /* \"FundMe.sol\":1693:1728  require(callSuccess, \"Call failed\") */\n      tag_70\n      jumpi\n      mload(0x40)\n      0x08c379a000000000000000000000000000000000000000000000000000000000\n      dup2\n      mstore\n      0x04\n      add\n      tag_71\n      swap1\n      tag_72\n      jump\t// in\n    tag_71:\n      mload(0x40)\n      dup1\n      swap2\n      sub\n      swap1\n      revert\n    tag_70:\n        /* \"FundMe.sol\":1735:1743  revert() */\n      0x00\n      dup1\n      revert\n        /* \"FundMe.sol\":442:518  mapping(address funder => uint256 amountFunded) public addressToAmountFunded */\n    tag_22:\n      mstore(0x20, 0x01)\n      dup1\n      0x00\n      mstore\n      keccak256(0x00, 0x40)\n      0x00\n      swap2\n      pop\n      swap1\n      pop\n      sload\n      dup2\n      jump\t// out\n        /* \"FundMe.sol\":2000:2021  uint256 public result */\n    tag_27:\n      sload(0x02)\n      dup2\n      jump\t// out\n        /* \"FundMe.sol\":355:402  uint256 public constant MINIMUM_USD = 50 * 1e18 */\n    tag_31:\n        /* \"FundMe.sol\":393:402  50 * 1e18 */\n      0x02b5e3af16b1880000\n        /* \"FundMe.sol\":355:402  uint256 public constant MINIMUM_USD = 50 * 1e18 */\n      dup2\n      jump\t// out\n        /* \"FundMe.sol\":669:886  function fund() public payable {... */\n    tag_34:\n        /* \"FundMe.sol\":393:402  50 * 1e18 */\n      0x02b5e3af16b1880000\n        /* \"FundMe.sol\":715:744  msg.value.getConversionRate() */\n      tag_74\n        /* \"FundMe.sol\":715:724  msg.value */\n      callvalue\n        /* \"FundMe.sol\":715:742  msg.value.getConversionRate */\n      tag_75\n        /* \"FundMe.sol\":715:744  msg.value.getConversionRate() */\n      jump\t// in\n    tag_74:\n        /* \"FundMe.sol\":715:759  msg.value.getConversionRate() >= MINIMUM_USD */\n      lt\n      iszero\n        /* \"FundMe.sol\":707:792  require(msg.value.getConversionRate() >= MINIMUM_USD, \"did not meet the minimum USD\") */\n      tag_76\n      jumpi\n      mload(0x40)\n      0x08c379a000000000000000000000000000000000000000000000000000000000\n      dup2\n      mstore\n      0x04\n      add\n      tag_77\n      swap1\n      tag_78\n      jump\t// in\n    tag_77:\n      mload(0x40)\n      dup1\n      swap2\n      sub\n      swap1\n      revert\n    tag_76:\n        /* \"FundMe.sol\":799:806  funders */\n      0x00\n        /* \"FundMe.sol\":812:822  msg.sender */\n      caller\n        /* \"FundMe.sol\":799:823  funders.push(msg.sender) */\n      swap1\n      dup1\n      0x01\n      dup2\n      sload\n      add\n      dup1\n      dup3\n      sstore\n      dup1\n      swap2\n      pop\n      pop\n      0x01\n      swap1\n      sub\n      swap1\n      0x00\n      mstore\n      keccak256(0x00, 0x20)\n      add\n      0x00\n      swap1\n      swap2\n      swap1\n      swap2\n      swap1\n      swap2\n      0x0100\n      exp\n      dup2\n      sload\n      dup2\n      0xffffffffffffffffffffffffffffffffffffffff\n      mul\n      not\n      and\n      swap1\n      dup4\n      0xffffffffffffffffffffffffffffffffffffffff\n      and\n      mul\n      or\n      swap1\n      sstore\n      pop\n        /* \"FundMe.sol\":867:876  msg.value */\n      callvalue\n        /* \"FundMe.sol\":830:851  addressToAmountFunded */\n      0x01\n        /* \"FundMe.sol\":830:863  addressToAmountFunded[msg.sender] */\n      0x00\n        /* \"FundMe.sol\":852:862  msg.sender */\n      caller\n        /* \"FundMe.sol\":830:863  addressToAmountFunded[msg.sender] */\n      0xffffffffffffffffffffffffffffffffffffffff\n      and\n      0xffffffffffffffffffffffffffffffffffffffff\n      and\n      dup2\n      mstore\n      0x20\n      add\n      swap1\n      dup2\n      mstore\n      0x20\n      add\n      0x00\n      keccak256\n      0x00\n        /* \"FundMe.sol\":830:876  addressToAmountFunded[msg.sender] += msg.value */\n      dup3\n      dup3\n      sload\n      tag_80\n      swap2\n      swap1\n      tag_81\n      jump\t// in\n    tag_80:\n      swap3\n      pop\n      pop\n      dup2\n      swap1\n      sstore\n      pop\n        /* \"FundMe.sol\":669:886  function fund() public payable {... */\n      jump\t// out\n        /* \"FundMe.sol\":527:559  address public immutable i_owner */\n    tag_37:\n      immutable(\"0xcc143a676b82d5e07b2c9d57717b403ab3c58caa273a42cdb95b15980141a86c\")\n      dup2\n      jump\t// out\n        /* \"FundMe.sol\":411:435  address[] public funders */\n    tag_44:\n      0x00\n      dup2\n      dup2\n      sload\n      dup2\n      lt\n      tag_82\n      jumpi\n      0x00\n      dup1\n      revert\n    tag_82:\n      swap1\n      0x00\n      mstore\n      keccak256(0x00, 0x20)\n      add\n      0x00\n      swap2\n      pop\n      sload\n      swap1\n      0x0100\n      exp\n      swap1\n      div\n      0xffffffffffffffffffffffffffffffffffffffff\n      and\n      dup2\n      jump\t// out\n        /* \"PriceConverter.sol\":487:709  function getConversionRate(uint256 ethAmount) internal view returns(uint256) {... */\n    tag_75:\n        /* \"PriceConverter.sol\":555:562  uint256 */\n      0x00\n        /* \"PriceConverter.sol\":575:591  uint256 ethPrice */\n      dup1\n        /* \"PriceConverter.sol\":594:604  getPrice() */\n      tag_85\n        /* \"PriceConverter.sol\":594:602  getPrice */\n      tag_86\n        /* \"PriceConverter.sol\":594:604  getPrice() */\n      jump\t// in\n    tag_85:\n        /* \"PriceConverter.sol\":575:604  uint256 ethPrice = getPrice() */\n      swap1\n      pop\n        /* \"PriceConverter.sol\":615:637  uint256 ethAmountInUsd */\n      0x00\n        /* \"PriceConverter.sol\":665:669  1e18 */\n      0x0de0b6b3a7640000\n        /* \"PriceConverter.sol\":652:661  ethAmount */\n      dup5\n        /* \"PriceConverter.sol\":641:649  ethPrice */\n      dup4\n        /* \"PriceConverter.sol\":641:661  ethPrice * ethAmount */\n      tag_87\n      swap2\n      swap1\n      tag_88\n      jump\t// in\n    tag_87:\n        /* \"PriceConverter.sol\":640:669  (ethPrice * ethAmount) / 1e18 */\n      tag_89\n      swap2\n      swap1\n      tag_90\n      jump\t// in\n    tag_89:\n        /* \"PriceConverter.sol\":615:669  uint256 ethAmountInUsd = (ethPrice * ethAmount) / 1e18 */\n      swap1\n      pop\n        /* \"PriceConverter.sol\":687:701  ethAmountInUsd */\n      dup1\n        /* \"PriceConverter.sol\":680:701  return ethAmountInUsd */\n      swap3\n      pop\n      pop\n      pop\n        /* \"PriceConverter.sol\":487:709  function getConversionRate(uint256 ethAmount) internal view returns(uint256) {... */\n      swap2\n      swap1\n      pop\n      jump\t// out\n        /* \"PriceConverter.sol\":207:479  function getPrice() internal view returns(uint256) {... */\n    tag_86:\n        /* \"PriceConverter.sol\":249:256  uint256 */\n      0x00\n        /* \"PriceConverter.sol\":271:302  AggregatorV3Interface priceFeed */\n      dup1\n        /* \"PriceConverter.sol\":327:369  0xfEefF7c3fB57d18C5C6Cdd71e45D2D0b4F9377bF */\n      0xfeeff7c3fb57d18c5c6cdd71e45d2d0b4f9377bf\n        /* \"PriceConverter.sol\":271:370  AggregatorV3Interface priceFeed = AggregatorV3Interface(0xfEefF7c3fB57d18C5C6Cdd71e45D2D0b4F9377bF) */\n      swap1\n      pop\n        /* \"PriceConverter.sol\":384:397  int256 answer */\n      0x00\n        /* \"PriceConverter.sol\":404:413  priceFeed */\n      dup2\n        /* \"PriceConverter.sol\":404:429  priceFeed.latestRoundData */\n      0xffffffffffffffffffffffffffffffffffffffff\n      and\n      0xfeaf968c\n        /* \"PriceConverter.sol\":404:431  priceFeed.latestRoundData() */\n      mload(0x40)\n      dup2\n      0xffffffff\n      and\n      0xe0\n      shl\n      dup2\n      mstore\n      0x04\n      add\n      0xa0\n      mload(0x40)\n      dup1\n      dup4\n      sub\n      dup2\n      dup7\n      gas\n      staticcall\n      iszero\n      dup1\n      iszero\n      tag_93\n      jumpi\n      returndatasize\n      0x00\n      dup1\n      returndatacopy\n      revert(0x00, returndatasize)\n    tag_93:\n      pop\n      pop\n      pop\n      pop\n      mload(0x40)\n      returndatasize\n      not(0x1f)\n      0x1f\n      dup3\n      add\n      and\n      dup3\n      add\n      dup1\n      0x40\n      mstore\n      pop\n      dup2\n      add\n      swap1\n      tag_94\n      swap2\n      swap1\n      tag_95\n      jump\t// in\n    tag_94:\n        /* \"PriceConverter.sol\":381:431  (, int256 answer,,,) = priceFeed.latestRoundData() */\n      pop\n      pop\n      pop\n      swap2\n      pop\n      pop\n        /* \"PriceConverter.sol\":466:470  1e10 */\n      0x02540be400\n        /* \"PriceConverter.sol\":457:463  answer */\n      dup2\n        /* \"PriceConverter.sol\":457:470  answer * 1e10 */\n      tag_96\n      swap2\n      swap1\n      tag_97\n      jump\t// in\n    tag_96:\n        /* \"PriceConverter.sol\":442:471  return uint256(answer * 1e10) */\n      swap3\n      pop\n      pop\n      pop\n        /* \"PriceConverter.sol\":207:479  function getPrice() internal view returns(uint256) {... */\n      swap1\n      jump\t// out\n    tag_64:\n      dup3\n      dup1\n      sload\n      dup3\n      dup3\n      sstore\n      swap1\n      0x00\n      mstore\n      keccak256(0x00, 0x20)\n      swap1\n      dup2\n      add\n      swap3\n      dup3\n      iszero\n      tag_98\n      jumpi\n      swap2\n      0x20\n      mul\n      dup3\n      add\n    tag_99:\n      dup3\n      dup2\n      gt\n      iszero\n      tag_100\n      jumpi\n      dup3\n      mload\n      dup3\n      exp(0x0100, 0x00)\n      dup2\n      sload\n      dup2\n      0xffffffffffffffffffffffffffffffffffffffff\n      mul\n      not\n      and\n      swap1\n      dup4\n      0xffffffffffffffffffffffffffffffffffffffff\n      and\n      mul\n      or\n      swap1\n      sstore\n      pop\n      swap2\n      0x20\n      add\n      swap2\n      swap1\n      0x01\n      add\n      swap1\n      jump(tag_99)\n    tag_100:\n    tag_98:\n      pop\n      swap1\n      pop\n      tag_101\n      swap2\n      swap1\n      tag_102\n      jump\t// in\n    tag_101:\n      pop\n      swap1\n      jump\t// out\n    tag_102:\n    tag_103:\n      dup1\n      dup3\n      gt\n      iszero\n      tag_104\n      jumpi\n      0x00\n      dup2\n      0x00\n      swap1\n      sstore\n      pop\n      0x01\n      add\n      jump(tag_103)\n    tag_104:\n      pop\n      swap1\n      jump\t// out\n        /* \"#utility.yul\":88:205   */\n    tag_106:\n        /* \"#utility.yul\":197:198   */\n      0x00\n        /* \"#utility.yul\":194:195   */\n      dup1\n        /* \"#utility.yul\":187:199   */\n      revert\n        /* \"#utility.yul\":334:460   */\n    tag_108:\n        /* \"#utility.yul\":371:378   */\n      0x00\n        /* \"#utility.yul\":411:453   */\n      0xffffffffffffffffffffffffffffffffffffffff\n        /* \"#utility.yul\":404:409   */\n      dup3\n        /* \"#utility.yul\":400:454   */\n      and\n        /* \"#utility.yul\":389:454   */\n      swap1\n      pop\n        /* \"#utility.yul\":334:460   */\n      swap2\n      swap1\n      pop\n      jump\t// out\n        /* \"#utility.yul\":466:562   */\n    tag_109:\n        /* \"#utility.yul\":503:510   */\n      0x00\n        /* \"#utility.yul\":532:556   */\n      tag_142\n        /* \"#utility.yul\":550:555   */\n      dup3\n        /* \"#utility.yul\":532:556   */\n      tag_108\n      jump\t// in\n    tag_142:\n        /* \"#utility.yul\":521:556   */\n      swap1\n      pop\n        /* \"#utility.yul\":466:562   */\n      swap2\n      swap1\n      pop\n      jump\t// out\n        /* \"#utility.yul\":568:690   */\n    tag_110:\n        /* \"#utility.yul\":641:665   */\n      tag_144\n        /* \"#utility.yul\":659:664   */\n      dup2\n        /* \"#utility.yul\":641:665   */\n      tag_109\n      jump\t// in\n    tag_144:\n        /* \"#utility.yul\":634:639   */\n      dup2\n        /* \"#utility.yul\":631:666   */\n      eq\n        /* \"#utility.yul\":621:684   */\n      tag_145\n      jumpi\n        /* \"#utility.yul\":680:681   */\n      0x00\n        /* \"#utility.yul\":677:678   */\n      dup1\n        /* \"#utility.yul\":670:682   */\n      revert\n        /* \"#utility.yul\":621:684   */\n    tag_145:\n        /* \"#utility.yul\":568:690   */\n      pop\n      jump\t// out\n        /* \"#utility.yul\":696:835   */\n    tag_111:\n        /* \"#utility.yul\":742:747   */\n      0x00\n        /* \"#utility.yul\":780:786   */\n      dup2\n        /* \"#utility.yul\":767:787   */\n      calldataload\n        /* \"#utility.yul\":758:787   */\n      swap1\n      pop\n        /* \"#utility.yul\":796:829   */\n      tag_147\n        /* \"#utility.yul\":823:828   */\n      dup2\n        /* \"#utility.yul\":796:829   */\n      tag_110\n      jump\t// in\n    tag_147:\n        /* \"#utility.yul\":696:835   */\n      swap3\n      swap2\n      pop\n      pop\n      jump\t// out\n        /* \"#utility.yul\":841:1170   */\n    tag_21:\n        /* \"#utility.yul\":900:906   */\n      0x00\n        /* \"#utility.yul\":949:951   */\n      0x20\n        /* \"#utility.yul\":937:946   */\n      dup3\n        /* \"#utility.yul\":928:935   */\n      dup5\n        /* \"#utility.yul\":924:947   */\n      sub\n        /* \"#utility.yul\":920:952   */\n      slt\n        /* \"#utility.yul\":917:1036   */\n      iszero\n      tag_149\n      jumpi\n        /* \"#utility.yul\":955:1034   */\n      tag_150\n      tag_106\n      jump\t// in\n    tag_150:\n        /* \"#utility.yul\":917:1036   */\n    tag_149:\n        /* \"#utility.yul\":1075:1076   */\n      0x00\n        /* \"#utility.yul\":1100:1153   */\n      tag_151\n        /* \"#utility.yul\":1145:1152   */\n      dup5\n        /* \"#utility.yul\":1136:1142   */\n      dup3\n        /* \"#utility.yul\":1125:1134   */\n      dup6\n        /* \"#utility.yul\":1121:1143   */\n      add\n        /* \"#utility.yul\":1100:1153   */\n      tag_111\n      jump\t// in\n    tag_151:\n        /* \"#utility.yul\":1090:1153   */\n      swap2\n      pop\n        /* \"#utility.yul\":1046:1163   */\n      pop\n        /* \"#utility.yul\":841:1170   */\n      swap3\n      swap2\n      pop\n      pop\n      jump\t// out\n        /* \"#utility.yul\":1176:1253   */\n    tag_112:\n        /* \"#utility.yul\":1213:1220   */\n      0x00\n        /* \"#utility.yul\":1242:1247   */\n      dup2\n        /* \"#utility.yul\":1231:1247   */\n      swap1\n      pop\n        /* \"#utility.yul\":1176:1253   */\n      swap2\n      swap1\n      pop\n      jump\t// out\n        /* \"#utility.yul\":1259:1377   */\n    tag_113:\n        /* \"#utility.yul\":1346:1370   */\n      tag_154\n        /* \"#utility.yul\":1364:1369   */\n      dup2\n        /* \"#utility.yul\":1346:1370   */\n      tag_112\n      jump\t// in\n    tag_154:\n        /* \"#utility.yul\":1341:1344   */\n      dup3\n        /* \"#utility.yul\":1334:1371   */\n      mstore\n        /* \"#utility.yul\":1259:1377   */\n      pop\n      pop\n      jump\t// out\n        /* \"#utility.yul\":1383:1605   */\n    tag_24:\n        /* \"#utility.yul\":1476:1480   */\n      0x00\n        /* \"#utility.yul\":1514:1516   */\n      0x20\n        /* \"#utility.yul\":1503:1512   */\n      dup3\n        /* \"#utility.yul\":1499:1517   */\n      add\n        /* \"#utility.yul\":1491:1517   */\n      swap1\n      pop\n        /* \"#utility.yul\":1527:1598   */\n      tag_156\n        /* \"#utility.yul\":1595:1596   */\n      0x00\n        /* \"#utility.yul\":1584:1593   */\n      dup4\n        /* \"#utility.yul\":1580:1597   */\n      add\n        /* \"#utility.yul\":1571:1577   */\n      dup5\n        /* \"#utility.yul\":1527:1598   */\n      tag_113\n      jump\t// in\n    tag_156:\n        /* \"#utility.yul\":1383:1605   */\n      swap3\n      swap2\n      pop\n      pop\n      jump\t// out\n        /* \"#utility.yul\":1611:1729   */\n    tag_114:\n        /* \"#utility.yul\":1698:1722   */\n      tag_158\n        /* \"#utility.yul\":1716:1721   */\n      dup2\n        /* \"#utility.yul\":1698:1722   */\n      tag_109\n      jump\t// in\n    tag_158:\n        /* \"#utility.yul\":1693:1696   */\n      dup3\n        /* \"#utility.yul\":1686:1723   */\n      mstore\n        /* \"#utility.yul\":1611:1729   */\n      pop\n      pop\n      jump\t// out\n        /* \"#utility.yul\":1735:1957   */\n    tag_39:\n        /* \"#utility.yul\":1828:1832   */\n      0x00\n        /* \"#utility.yul\":1866:1868   */\n      0x20\n        /* \"#utility.yul\":1855:1864   */\n      dup3\n        /* \"#utility.yul\":1851:1869   */\n      add\n        /* \"#utility.yul\":1843:1869   */\n      swap1\n      pop\n        /* \"#utility.yul\":1879:1950   */\n      tag_160\n        /* \"#utility.yul\":1947:1948   */\n      0x00\n        /* \"#utility.yul\":1936:1945   */\n      dup4\n        /* \"#utility.yul\":1932:1949   */\n      add\n        /* \"#utility.yul\":1923:1929   */\n      dup5\n        /* \"#utility.yul\":1879:1950   */\n      tag_114\n      jump\t// in\n    tag_160:\n        /* \"#utility.yul\":1735:1957   */\n      swap3\n      swap2\n      pop\n      pop\n      jump\t// out\n        /* \"#utility.yul\":1963:2085   */\n    tag_115:\n        /* \"#utility.yul\":2036:2060   */\n      tag_162\n        /* \"#utility.yul\":2054:2059   */\n      dup2\n        /* \"#utility.yul\":2036:2060   */\n      tag_112\n      jump\t// in\n    tag_162:\n        /* \"#utility.yul\":2029:2034   */\n      dup2\n        /* \"#utility.yul\":2026:2061   */\n      eq\n        /* \"#utility.yul\":2016:2079   */\n      tag_163\n      jumpi\n        /* \"#utility.yul\":2075:2076   */\n      0x00\n        /* \"#utility.yul\":2072:2073   */\n      dup1\n        /* \"#utility.yul\":2065:2077   */\n      revert\n        /* \"#utility.yul\":2016:2079   */\n    tag_163:\n        /* \"#utility.yul\":1963:2085   */\n      pop\n      jump\t// out\n        /* \"#utility.yul\":2091:2230   */\n    tag_116:\n        /* \"#utility.yul\":2137:2142   */\n      0x00\n        /* \"#utility.yul\":2175:2181   */\n      dup2\n        /* \"#utility.yul\":2162:2182   */\n      calldataload\n        /* \"#utility.yul\":2153:2182   */\n      swap1\n      pop\n        /* \"#utility.yul\":2191:2224   */\n      tag_165\n        /* \"#utility.yul\":2218:2223   */\n      dup2\n        /* \"#utility.yul\":2191:2224   */\n      tag_115\n      jump\t// in\n    tag_165:\n        /* \"#utility.yul\":2091:2230   */\n      swap3\n      swap2\n      pop\n      pop\n      jump\t// out\n        /* \"#utility.yul\":2236:2565   */\n    tag_43:\n        /* \"#utility.yul\":2295:2301   */\n      0x00\n        /* \"#utility.yul\":2344:2346   */\n      0x20\n        /* \"#utility.yul\":2332:2341   */\n      dup3\n        /* \"#utility.yul\":2323:2330   */\n      dup5\n        /* \"#utility.yul\":2319:2342   */\n      sub\n        /* \"#utility.yul\":2315:2347   */\n      slt\n        /* \"#utility.yul\":2312:2431   */\n      iszero\n      tag_167\n      jumpi\n        /* \"#utility.yul\":2350:2429   */\n      tag_168\n      tag_106\n      jump\t// in\n    tag_168:\n        /* \"#utility.yul\":2312:2431   */\n    tag_167:\n        /* \"#utility.yul\":2470:2471   */\n      0x00\n        /* \"#utility.yul\":2495:2548   */\n      tag_169\n        /* \"#utility.yul\":2540:2547   */\n      dup5\n        /* \"#utility.yul\":2531:2537   */\n      dup3\n        /* \"#utility.yul\":2520:2529   */\n      dup6\n        /* \"#utility.yul\":2516:2538   */\n      add\n        /* \"#utility.yul\":2495:2548   */\n      tag_116\n      jump\t// in\n    tag_169:\n        /* \"#utility.yul\":2485:2548   */\n      swap2\n      pop\n        /* \"#utility.yul\":2441:2558   */\n      pop\n        /* \"#utility.yul\":2236:2565   */\n      swap3\n      swap2\n      pop\n      pop\n      jump\t// out\n        /* \"#utility.yul\":2571:2740   */\n    tag_117:\n        /* \"#utility.yul\":2655:2666   */\n      0x00\n        /* \"#utility.yul\":2689:2695   */\n      dup3\n        /* \"#utility.yul\":2684:2687   */\n      dup3\n        /* \"#utility.yul\":2677:2696   */\n      mstore\n        /* \"#utility.yul\":2729:2733   */\n      0x20\n        /* \"#utility.yul\":2724:2727   */\n      dup3\n        /* \"#utility.yul\":2720:2734   */\n      add\n        /* \"#utility.yul\":2705:2734   */\n      swap1\n      pop\n        /* \"#utility.yul\":2571:2740   */\n      swap3\n      swap2\n      pop\n      pop\n      jump\t// out\n        /* \"#utility.yul\":2746:2909   */\n    tag_118:\n        /* \"#utility.yul\":2886:2901   */\n      0x4d757374206265206f776e657200000000000000000000000000000000000000\n        /* \"#utility.yul\":2882:2883   */\n      0x00\n        /* \"#utility.yul\":2874:2880   */\n      dup3\n        /* \"#utility.yul\":2870:2884   */\n      add\n        /* \"#utility.yul\":2863:2902   */\n      mstore\n        /* \"#utility.yul\":2746:2909   */\n      pop\n      jump\t// out\n        /* \"#utility.yul\":2915:3281   */\n    tag_119:\n        /* \"#utility.yul\":3057:3060   */\n      0x00\n        /* \"#utility.yul\":3078:3145   */\n      tag_173\n        /* \"#utility.yul\":3142:3144   */\n      0x0d\n        /* \"#utility.yul\":3137:3140   */\n      dup4\n        /* \"#utility.yul\":3078:3145   */\n      tag_117\n      jump\t// in\n    tag_173:\n        /* \"#utility.yul\":3071:3145   */\n      swap2\n      pop\n        /* \"#utility.yul\":3154:3247   */\n      tag_174\n        /* \"#utility.yul\":3243:3246   */\n      dup3\n        /* \"#utility.yul\":3154:3247   */\n      tag_118\n      jump\t// in\n    tag_174:\n        /* \"#utility.yul\":3272:3274   */\n      0x20\n        /* \"#utility.yul\":3267:3270   */\n      dup3\n        /* \"#utility.yul\":3263:3275   */\n      add\n        /* \"#utility.yul\":3256:3275   */\n      swap1\n      pop\n        /* \"#utility.yul\":2915:3281   */\n      swap2\n      swap1\n      pop\n      jump\t// out\n        /* \"#utility.yul\":3287:3706   */\n    tag_51:\n        /* \"#utility.yul\":3453:3457   */\n      0x00\n        /* \"#utility.yul\":3491:3493   */\n      0x20\n        /* \"#utility.yul\":3480:3489   */\n      dup3\n        /* \"#utility.yul\":3476:3494   */\n      add\n        /* \"#utility.yul\":3468:3494   */\n      swap1\n      pop\n        /* \"#utility.yul\":3540:3549   */\n      dup2\n        /* \"#utility.yul\":3534:3538   */\n      dup2\n        /* \"#utility.yul\":3530:3550   */\n      sub\n        /* \"#utility.yul\":3526:3527   */\n      0x00\n        /* \"#utility.yul\":3515:3524   */\n      dup4\n        /* \"#utility.yul\":3511:3528   */\n      add\n        /* \"#utility.yul\":3504:3551   */\n      mstore\n        /* \"#utility.yul\":3568:3699   */\n      tag_176\n        /* \"#utility.yul\":3694:3698   */\n      dup2\n        /* \"#utility.yul\":3568:3699   */\n      tag_119\n      jump\t// in\n    tag_176:\n        /* \"#utility.yul\":3560:3699   */\n      swap1\n      pop\n        /* \"#utility.yul\":3287:3706   */\n      swap2\n      swap1\n      pop\n      jump\t// out\n        /* \"#utility.yul\":3712:3892   */\n    tag_57:\n        /* \"#utility.yul\":3760:3837   */\n      0x4e487b7100000000000000000000000000000000000000000000000000000000\n        /* \"#utility.yul\":3757:3758   */\n      0x00\n        /* \"#utility.yul\":3750:3838   */\n      mstore\n        /* \"#utility.yul\":3857:3861   */\n      0x32\n        /* \"#utility.yul\":3854:3855   */\n      0x04\n        /* \"#utility.yul\":3847:3862   */\n      mstore\n        /* \"#utility.yul\":3881:3885   */\n      0x24\n        /* \"#utility.yul\":3878:3879   */\n      0x00\n        /* \"#utility.yul\":3871:3886   */\n      revert\n        /* \"#utility.yul\":3898:4078   */\n    tag_61:\n        /* \"#utility.yul\":3946:4023   */\n      0x4e487b7100000000000000000000000000000000000000000000000000000000\n        /* \"#utility.yul\":3943:3944   */\n      0x00\n        /* \"#utility.yul\":3936:4024   */\n      mstore\n        /* \"#utility.yul\":4043:4047   */\n      0x41\n        /* \"#utility.yul\":4040:4041   */\n      0x04\n        /* \"#utility.yul\":4033:4048   */\n      mstore\n        /* \"#utility.yul\":4067:4071   */\n      0x24\n        /* \"#utility.yul\":4064:4065   */\n      0x00\n        /* \"#utility.yul\":4057:4072   */\n      revert\n        /* \"#utility.yul\":4084:4231   */\n    tag_120:\n        /* \"#utility.yul\":4185:4196   */\n      0x00\n        /* \"#utility.yul\":4222:4225   */\n      dup2\n        /* \"#utility.yul\":4207:4225   */\n      swap1\n      pop\n        /* \"#utility.yul\":4084:4231   */\n      swap3\n      swap2\n      pop\n      pop\n      jump\t// out\n        /* \"#utility.yul\":4237:4351   */\n    tag_121:\n      pop\n      jump\t// out\n        /* \"#utility.yul\":4357:4755   */\n    tag_122:\n        /* \"#utility.yul\":4516:4519   */\n      0x00\n        /* \"#utility.yul\":4537:4620   */\n      tag_182\n        /* \"#utility.yul\":4618:4619   */\n      0x00\n        /* \"#utility.yul\":4613:4616   */\n      dup4\n        /* \"#utility.yul\":4537:4620   */\n      tag_120\n      jump\t// in\n    tag_182:\n        /* \"#utility.yul\":4530:4620   */\n      swap2\n      pop\n        /* \"#utility.yul\":4629:4722   */\n      tag_183\n        /* \"#utility.yul\":4718:4721   */\n      dup3\n        /* \"#utility.yul\":4629:4722   */\n      tag_121\n      jump\t// in\n    tag_183:\n        /* \"#utility.yul\":4747:4748   */\n      0x00\n        /* \"#utility.yul\":4742:4745   */\n      dup3\n        /* \"#utility.yul\":4738:4749   */\n      add\n        /* \"#utility.yul\":4731:4749   */\n      swap1\n      pop\n        /* \"#utility.yul\":4357:4755   */\n      swap2\n      swap1\n      pop\n      jump\t// out\n        /* \"#utility.yul\":4761:5140   */\n    tag_66:\n        /* \"#utility.yul\":4945:4948   */\n      0x00\n        /* \"#utility.yul\":4967:5114   */\n      tag_185\n        /* \"#utility.yul\":5110:5113   */\n      dup3\n        /* \"#utility.yul\":4967:5114   */\n      tag_122\n      jump\t// in\n    tag_185:\n        /* \"#utility.yul\":4960:5114   */\n      swap2\n      pop\n        /* \"#utility.yul\":5131:5134   */\n      dup2\n        /* \"#utility.yul\":5124:5134   */\n      swap1\n      pop\n        /* \"#utility.yul\":4761:5140   */\n      swap2\n      swap1\n      pop\n      jump\t// out\n        /* \"#utility.yul\":5146:5307   */\n    tag_123:\n        /* \"#utility.yul\":5286:5299   */\n      0x43616c6c206661696c6564000000000000000000000000000000000000000000\n        /* \"#utility.yul\":5282:5283   */\n      0x00\n        /* \"#utility.yul\":5274:5280   */\n      dup3\n        /* \"#utility.yul\":5270:5284   */\n      add\n        /* \"#utility.yul\":5263:5300   */\n      mstore\n        /* \"#utility.yul\":5146:5307   */\n      pop\n      jump\t// out\n        /* \"#utility.yul\":5313:5679   */\n    tag_124:\n        /* \"#utility.yul\":5455:5458   */\n      0x00\n        /* \"#utility.yul\":5476:5543   */\n      tag_188\n        /* \"#utility.yul\":5540:5542   */\n      0x0b\n        /* \"#utility.yul\":5535:5538   */\n      dup4\n        /* \"#utility.yul\":5476:5543   */\n      tag_117\n      jump\t// in\n    tag_188:\n        /* \"#utility.yul\":5469:5543   */\n      swap2\n      pop\n        /* \"#utility.yul\":5552:5645   */\n      tag_189\n        /* \"#utility.yul\":5641:5644   */\n      dup3\n        /* \"#utility.yul\":5552:5645   */\n      tag_123\n      jump\t// in\n    tag_189:\n        /* \"#utility.yul\":5670:5672   */\n      0x20\n        /* \"#utility.yul\":5665:5668   */\n      dup3\n        /* \"#utility.yul\":5661:5673   */\n      add\n        /* \"#utility.yul\":5654:5673   */\n      swap1\n      pop\n        /* \"#utility.yul\":5313:5679   */\n      swap2\n      swap1\n      pop\n      jump\t// out\n        /* \"#utility.yul\":5685:6104   */\n    tag_72:\n        /* \"#utility.yul\":5851:5855   */\n      0x00\n        /* \"#utility.yul\":5889:5891   */\n      0x20\n        /* \"#utility.yul\":5878:5887   */\n      dup3\n        /* \"#utility.yul\":5874:5892   */\n      add\n        /* \"#utility.yul\":5866:5892   */\n      swap1\n      pop\n        /* \"#utility.yul\":5938:5947   */\n      dup2\n        /* \"#utility.yul\":5932:5936   */\n      dup2\n        /* \"#utility.yul\":5928:5948   */\n      sub\n        /* \"#utility.yul\":5924:5925   */\n      0x00\n        /* \"#utility.yul\":5913:5922   */\n      dup4\n        /* \"#utility.yul\":5909:5926   */\n      add\n        /* \"#utility.yul\":5902:5949   */\n      mstore\n        /* \"#utility.yul\":5966:6097   */\n      tag_191\n        /* \"#utility.yul\":6092:6096   */\n      dup2\n        /* \"#utility.yul\":5966:6097   */\n      tag_124\n      jump\t// in\n    tag_191:\n        /* \"#utility.yul\":5958:6097   */\n      swap1\n      pop\n        /* \"#utility.yul\":5685:6104   */\n      swap2\n      swap1\n      pop\n      jump\t// out\n        /* \"#utility.yul\":6110:6288   */\n    tag_125:\n        /* \"#utility.yul\":6250:6280   */\n      0x646964206e6f74206d65657420746865206d696e696d756d2055534400000000\n        /* \"#utility.yul\":6246:6247   */\n      0x00\n        /* \"#utility.yul\":6238:6244   */\n      dup3\n        /* \"#utility.yul\":6234:6248   */\n      add\n        /* \"#utility.yul\":6227:6281   */\n      mstore\n        /* \"#utility.yul\":6110:6288   */\n      pop\n      jump\t// out\n        /* \"#utility.yul\":6294:6660   */\n    tag_126:\n        /* \"#utility.yul\":6436:6439   */\n      0x00\n        /* \"#utility.yul\":6457:6524   */\n      tag_194\n        /* \"#utility.yul\":6521:6523   */\n      0x1c\n        /* \"#utility.yul\":6516:6519   */\n      dup4\n        /* \"#utility.yul\":6457:6524   */\n      tag_117\n      jump\t// in\n    tag_194:\n        /* \"#utility.yul\":6450:6524   */\n      swap2\n      pop\n        /* \"#utility.yul\":6533:6626   */\n      tag_195\n        /* \"#utility.yul\":6622:6625   */\n      dup3\n        /* \"#utility.yul\":6533:6626   */\n      tag_125\n      jump\t// in\n    tag_195:\n        /* \"#utility.yul\":6651:6653   */\n      0x20\n        /* \"#utility.yul\":6646:6649   */\n      dup3\n        /* \"#utility.yul\":6642:6654   */\n      add\n        /* \"#utility.yul\":6635:6654   */\n      swap1\n      pop\n        /* \"#utility.yul\":6294:6660   */\n      swap2\n      swap1\n      pop\n      jump\t// out\n        /* \"#utility.yul\":6666:7085   */\n    tag_78:\n        /* \"#utility.yul\":6832:6836   */\n      0x00\n        /* \"#utility.yul\":6870:6872   */\n      0x20\n        /* \"#utility.yul\":6859:6868   */\n      dup3\n        /* \"#utility.yul\":6855:6873   */\n      add\n        /* \"#utility.yul\":6847:6873   */\n      swap1\n      pop\n        /* \"#utility.yul\":6919:6928   */\n      dup2\n        /* \"#utility.yul\":6913:6917   */\n      dup2\n        /* \"#utility.yul\":6909:6929   */\n      sub\n        /* \"#utility.yul\":6905:6906   */\n      0x00\n        /* \"#utility.yul\":6894:6903   */\n      dup4\n        /* \"#utility.yul\":6890:6907   */\n      add\n        /* \"#utility.yul\":6883:6930   */\n      mstore\n        /* \"#utility.yul\":6947:7078   */\n      tag_197\n        /* \"#utility.yul\":7073:7077   */\n      dup2\n        /* \"#utility.yul\":6947:7078   */\n      tag_126\n      jump\t// in\n    tag_197:\n        /* \"#utility.yul\":6939:7078   */\n      swap1\n      pop\n        /* \"#utility.yul\":6666:7085   */\n      swap2\n      swap1\n      pop\n      jump\t// out\n        /* \"#utility.yul\":7091:7271   */\n    tag_127:\n        /* \"#utility.yul\":7139:7216   */\n      0x4e487b7100000000000000000000000000000000000000000000000000000000\n        /* \"#utility.yul\":7136:7137   */\n      0x00\n        /* \"#utility.yul\":7129:7217   */\n      mstore\n        /* \"#utility.yul\":7236:7240   */\n      0x11\n        /* \"#utility.yul\":7233:7234   */\n      0x04\n        /* \"#utility.yul\":7226:7241   */\n      mstore\n        /* \"#utility.yul\":7260:7264   */\n      0x24\n        /* \"#utility.yul\":7257:7258   */\n      0x00\n        /* \"#utility.yul\":7250:7265   */\n      revert\n        /* \"#utility.yul\":7277:7468   */\n    tag_81:\n        /* \"#utility.yul\":7317:7320   */\n      0x00\n        /* \"#utility.yul\":7336:7356   */\n      tag_200\n        /* \"#utility.yul\":7354:7355   */\n      dup3\n        /* \"#utility.yul\":7336:7356   */\n      tag_112\n      jump\t// in\n    tag_200:\n        /* \"#utility.yul\":7331:7356   */\n      swap2\n      pop\n        /* \"#utility.yul\":7370:7390   */\n      tag_201\n        /* \"#utility.yul\":7388:7389   */\n      dup4\n        /* \"#utility.yul\":7370:7390   */\n      tag_112\n      jump\t// in\n    tag_201:\n        /* \"#utility.yul\":7365:7390   */\n      swap3\n      pop\n        /* \"#utility.yul\":7413:7414   */\n      dup3\n        /* \"#utility.yul\":7410:7411   */\n      dup3\n        /* \"#utility.yul\":7406:7415   */\n      add\n        /* \"#utility.yul\":7399:7415   */\n      swap1\n      pop\n        /* \"#utility.yul\":7434:7437   */\n      dup1\n        /* \"#utility.yul\":7431:7432   */\n      dup3\n        /* \"#utility.yul\":7428:7438   */\n      gt\n        /* \"#utility.yul\":7425:7461   */\n      iszero\n      tag_202\n      jumpi\n        /* \"#utility.yul\":7441:7459   */\n      tag_203\n      tag_127\n      jump\t// in\n    tag_203:\n        /* \"#utility.yul\":7425:7461   */\n    tag_202:\n        /* \"#utility.yul\":7277:7468   */\n      swap3\n      swap2\n      pop\n      pop\n      jump\t// out\n        /* \"#utility.yul\":7474:7884   */\n    tag_88:\n        /* \"#utility.yul\":7514:7521   */\n      0x00\n        /* \"#utility.yul\":7537:7557   */\n      tag_205\n        /* \"#utility.yul\":7555:7556   */\n      dup3\n        /* \"#utility.yul\":7537:7557   */\n      tag_112\n      jump\t// in\n    tag_205:\n        /* \"#utility.yul\":7532:7557   */\n      swap2\n      pop\n        /* \"#utility.yul\":7571:7591   */\n      tag_206\n        /* \"#utility.yul\":7589:7590   */\n      dup4\n        /* \"#utility.yul\":7571:7591   */\n      tag_112\n      jump\t// in\n    tag_206:\n        /* \"#utility.yul\":7566:7591   */\n      swap3\n      pop\n        /* \"#utility.yul\":7626:7627   */\n      dup3\n        /* \"#utility.yul\":7623:7624   */\n      dup3\n        /* \"#utility.yul\":7619:7628   */\n      mul\n        /* \"#utility.yul\":7648:7678   */\n      tag_207\n        /* \"#utility.yul\":7666:7677   */\n      dup2\n        /* \"#utility.yul\":7648:7678   */\n      tag_112\n      jump\t// in\n    tag_207:\n        /* \"#utility.yul\":7637:7678   */\n      swap2\n      pop\n        /* \"#utility.yul\":7827:7828   */\n      dup3\n        /* \"#utility.yul\":7818:7825   */\n      dup3\n        /* \"#utility.yul\":7814:7829   */\n      div\n        /* \"#utility.yul\":7811:7812   */\n      dup5\n        /* \"#utility.yul\":7808:7830   */\n      eq\n        /* \"#utility.yul\":7788:7789   */\n      dup4\n        /* \"#utility.yul\":7781:7790   */\n      iszero\n        /* \"#utility.yul\":7761:7844   */\n      or\n        /* \"#utility.yul\":7738:7877   */\n      tag_208\n      jumpi\n        /* \"#utility.yul\":7857:7875   */\n      tag_209\n      tag_127\n      jump\t// in\n    tag_209:\n        /* \"#utility.yul\":7738:7877   */\n    tag_208:\n        /* \"#utility.yul\":7522:7884   */\n      pop\n        /* \"#utility.yul\":7474:7884   */\n      swap3\n      swap2\n      pop\n      pop\n      jump\t// out\n        /* \"#utility.yul\":7890:8070   */\n    tag_128:\n        /* \"#utility.yul\":7938:8015   */\n      0x4e487b7100000000000000000000000000000000000000000000000000000000\n        /* \"#utility.yul\":7935:7936   */\n      0x00\n        /* \"#utility.yul\":7928:8016   */\n      mstore\n        /* \"#utility.yul\":8035:8039   */\n      0x12\n        /* \"#utility.yul\":8032:8033   */\n      0x04\n        /* \"#utility.yul\":8025:8040   */\n      mstore\n        /* \"#utility.yul\":8059:8063   */\n      0x24\n        /* \"#utility.yul\":8056:8057   */\n      0x00\n        /* \"#utility.yul\":8049:8064   */\n      revert\n        /* \"#utility.yul\":8076:8261   */\n    tag_90:\n        /* \"#utility.yul\":8116:8117   */\n      0x00\n        /* \"#utility.yul\":8133:8153   */\n      tag_212\n        /* \"#utility.yul\":8151:8152   */\n      dup3\n        /* \"#utility.yul\":8133:8153   */\n      tag_112\n      jump\t// in\n    tag_212:\n        /* \"#utility.yul\":8128:8153   */\n      swap2\n      pop\n        /* \"#utility.yul\":8167:8187   */\n      tag_213\n        /* \"#utility.yul\":8185:8186   */\n      dup4\n        /* \"#utility.yul\":8167:8187   */\n      tag_112\n      jump\t// in\n    tag_213:\n        /* \"#utility.yul\":8162:8187   */\n      swap3\n      pop\n        /* \"#utility.yul\":8206:8207   */\n      dup3\n        /* \"#utility.yul\":8196:8231   */\n      tag_214\n      jumpi\n        /* \"#utility.yul\":8211:8229   */\n      tag_215\n      tag_128\n      jump\t// in\n    tag_215:\n        /* \"#utility.yul\":8196:8231   */\n    tag_214:\n        /* \"#utility.yul\":8253:8254   */\n      dup3\n        /* \"#utility.yul\":8250:8251   */\n      dup3\n        /* \"#utility.yul\":8246:8255   */\n      div\n        /* \"#utility.yul\":8241:8255   */\n      swap1\n      pop\n        /* \"#utility.yul\":8076:8261   */\n      swap3\n      swap2\n      pop\n      pop\n      jump\t// out\n        /* \"#utility.yul\":8267:8372   */\n    tag_129:\n        /* \"#utility.yul\":8303:8310   */\n      0x00\n        /* \"#utility.yul\":8343:8365   */\n      0xffffffffffffffffffff\n        /* \"#utility.yul\":8336:8341   */\n      dup3\n        /* \"#utility.yul\":8332:8366   */\n      and\n        /* \"#utility.yul\":8321:8366   */\n      swap1\n      pop\n        /* \"#utility.yul\":8267:8372   */\n      swap2\n      swap1\n      pop\n      jump\t// out\n        /* \"#utility.yul\":8378:8498   */\n    tag_130:\n        /* \"#utility.yul\":8450:8473   */\n      tag_218\n        /* \"#utility.yul\":8467:8472   */\n      dup2\n        /* \"#utility.yul\":8450:8473   */\n      tag_129\n      jump\t// in\n    tag_218:\n        /* \"#utility.yul\":8443:8448   */\n      dup2\n        /* \"#utility.yul\":8440:8474   */\n      eq\n        /* \"#utility.yul\":8430:8492   */\n      tag_219\n      jumpi\n        /* \"#utility.yul\":8488:8489   */\n      0x00\n        /* \"#utility.yul\":8485:8486   */\n      dup1\n        /* \"#utility.yul\":8478:8490   */\n      revert\n        /* \"#utility.yul\":8430:8492   */\n    tag_219:\n        /* \"#utility.yul\":8378:8498   */\n      pop\n      jump\t// out\n        /* \"#utility.yul\":8504:8645   */\n    tag_131:\n        /* \"#utility.yul\":8560:8565   */\n      0x00\n        /* \"#utility.yul\":8591:8597   */\n      dup2\n        /* \"#utility.yul\":8585:8598   */\n      mload\n        /* \"#utility.yul\":8576:8598   */\n      swap1\n      pop\n        /* \"#utility.yul\":8607:8639   */\n      tag_221\n        /* \"#utility.yul\":8633:8638   */\n      dup2\n        /* \"#utility.yul\":8607:8639   */\n      tag_130\n      jump\t// in\n    tag_221:\n        /* \"#utility.yul\":8504:8645   */\n      swap3\n      swap2\n      pop\n      pop\n      jump\t// out\n        /* \"#utility.yul\":8651:8727   */\n    tag_132:\n        /* \"#utility.yul\":8687:8694   */\n      0x00\n        /* \"#utility.yul\":8716:8721   */\n      dup2\n        /* \"#utility.yul\":8705:8721   */\n      swap1\n      pop\n        /* \"#utility.yul\":8651:8727   */\n      swap2\n      swap1\n      pop\n      jump\t// out\n        /* \"#utility.yul\":8733:8853   */\n    tag_133:\n        /* \"#utility.yul\":8805:8828   */\n      tag_224\n        /* \"#utility.yul\":8822:8827   */\n      dup2\n        /* \"#utility.yul\":8805:8828   */\n      tag_132\n      jump\t// in\n    tag_224:\n        /* \"#utility.yul\":8798:8803   */\n      dup2\n        /* \"#utility.yul\":8795:8829   */\n      eq\n        /* \"#utility.yul\":8785:8847   */\n      tag_225\n      jumpi\n        /* \"#utility.yul\":8843:8844   */\n      0x00\n        /* \"#utility.yul\":8840:8841   */\n      dup1\n        /* \"#utility.yul\":8833:8845   */\n      revert\n        /* \"#utility.yul\":8785:8847   */\n    tag_225:\n        /* \"#utility.yul\":8733:8853   */\n      pop\n      jump\t// out\n        /* \"#utility.yul\":8859:9000   */\n    tag_134:\n        /* \"#utility.yul\":8915:8920   */\n      0x00\n        /* \"#utility.yul\":8946:8952   */\n      dup2\n        /* \"#utility.yul\":8940:8953   */\n      mload\n        /* \"#utility.yul\":8931:8953   */\n      swap1\n      pop\n        /* \"#utility.yul\":8962:8994   */\n      tag_227\n        /* \"#utility.yul\":8988:8993   */\n      dup2\n        /* \"#utility.yul\":8962:8994   */\n      tag_133\n      jump\t// in\n    tag_227:\n        /* \"#utility.yul\":8859:9000   */\n      swap3\n      swap2\n      pop\n      pop\n      jump\t// out\n        /* \"#utility.yul\":9006:9149   */\n    tag_135:\n        /* \"#utility.yul\":9063:9068   */\n      0x00\n        /* \"#utility.yul\":9094:9100   */\n      dup2\n        /* \"#utility.yul\":9088:9101   */\n      mload\n        /* \"#utility.yul\":9079:9101   */\n      swap1\n      pop\n        /* \"#utility.yul\":9110:9143   */\n      tag_229\n        /* \"#utility.yul\":9137:9142   */\n      dup2\n        /* \"#utility.yul\":9110:9143   */\n      tag_115\n      jump\t// in\n    tag_229:\n        /* \"#utility.yul\":9006:9149   */\n      swap3\n      swap2\n      pop\n      pop\n      jump\t// out\n        /* \"#utility.yul\":9155:10126   */\n    tag_95:\n        /* \"#utility.yul\":9258:9264   */\n      0x00\n        /* \"#utility.yul\":9266:9272   */\n      dup1\n        /* \"#utility.yul\":9274:9280   */\n      0x00\n        /* \"#utility.yul\":9282:9288   */\n      dup1\n        /* \"#utility.yul\":9290:9296   */\n      0x00\n        /* \"#utility.yul\":9339:9342   */\n      0xa0\n        /* \"#utility.yul\":9327:9336   */\n      dup7\n        /* \"#utility.yul\":9318:9325   */\n      dup9\n        /* \"#utility.yul\":9314:9337   */\n      sub\n        /* \"#utility.yul\":9310:9343   */\n      slt\n        /* \"#utility.yul\":9307:9427   */\n      iszero\n      tag_231\n      jumpi\n        /* \"#utility.yul\":9346:9425   */\n      tag_232\n      tag_106\n      jump\t// in\n    tag_232:\n        /* \"#utility.yul\":9307:9427   */\n    tag_231:\n        /* \"#utility.yul\":9466:9467   */\n      0x00\n        /* \"#utility.yul\":9491:9554   */\n      tag_233\n        /* \"#utility.yul\":9546:9553   */\n      dup9\n        /* \"#utility.yul\":9537:9543   */\n      dup3\n        /* \"#utility.yul\":9526:9535   */\n      dup10\n        /* \"#utility.yul\":9522:9544   */\n      add\n        /* \"#utility.yul\":9491:9554   */\n      tag_131\n      jump\t// in\n    tag_233:\n        /* \"#utility.yul\":9481:9554   */\n      swap6\n      pop\n        /* \"#utility.yul\":9437:9564   */\n      pop\n        /* \"#utility.yul\":9603:9605   */\n      0x20\n        /* \"#utility.yul\":9629:9692   */\n      tag_234\n        /* \"#utility.yul\":9684:9691   */\n      dup9\n        /* \"#utility.yul\":9675:9681   */\n      dup3\n        /* \"#utility.yul\":9664:9673   */\n      dup10\n        /* \"#utility.yul\":9660:9682   */\n      add\n        /* \"#utility.yul\":9629:9692   */\n      tag_134\n      jump\t// in\n    tag_234:\n        /* \"#utility.yul\":9619:9692   */\n      swap5\n      pop\n        /* \"#utility.yul\":9574:9702   */\n      pop\n        /* \"#utility.yul\":9741:9743   */\n      0x40\n        /* \"#utility.yul\":9767:9831   */\n      tag_235\n        /* \"#utility.yul\":9823:9830   */\n      dup9\n        /* \"#utility.yul\":9814:9820   */\n      dup3\n        /* \"#utility.yul\":9803:9812   */\n      dup10\n        /* \"#utility.yul\":9799:9821   */\n      add\n        /* \"#utility.yul\":9767:9831   */\n      tag_135\n      jump\t// in\n    tag_235:\n        /* \"#utility.yul\":9757:9831   */\n      swap4\n      pop\n        /* \"#utility.yul\":9712:9841   */\n      pop\n        /* \"#utility.yul\":9880:9882   */\n      0x60\n        /* \"#utility.yul\":9906:9970   */\n      tag_236\n        /* \"#utility.yul\":9962:9969   */\n      dup9\n        /* \"#utility.yul\":9953:9959   */\n      dup3\n        /* \"#utility.yul\":9942:9951   */\n      dup10\n        /* \"#utility.yul\":9938:9960   */\n      add\n        /* \"#utility.yul\":9906:9970   */\n      tag_135\n      jump\t// in\n    tag_236:\n        /* \"#utility.yul\":9896:9970   */\n      swap3\n      pop\n        /* \"#utility.yul\":9851:9980   */\n      pop\n        /* \"#utility.yul\":10019:10022   */\n      0x80\n        /* \"#utility.yul\":10046:10109   */\n      tag_237\n        /* \"#utility.yul\":10101:10108   */\n      dup9\n        /* \"#utility.yul\":10092:10098   */\n      dup3\n        /* \"#utility.yul\":10081:10090   */\n      dup10\n        /* \"#utility.yul\":10077:10099   */\n      add\n        /* \"#utility.yul\":10046:10109   */\n      tag_131\n      jump\t// in\n    tag_237:\n        /* \"#utility.yul\":10036:10109   */\n      swap2\n      pop\n        /* \"#utility.yul\":9990:10119   */\n      pop\n        /* \"#utility.yul\":9155:10126   */\n      swap3\n      swap6\n      pop\n      swap3\n      swap6\n      swap1\n      swap4\n      pop\n      jump\t// out\n        /* \"#utility.yul\":10132:10688   */\n    tag_97:\n        /* \"#utility.yul\":10171:10178   */\n      0x00\n        /* \"#utility.yul\":10194:10213   */\n      tag_239\n        /* \"#utility.yul\":10211:10212   */\n      dup3\n        /* \"#utility.yul\":10194:10213   */\n      tag_132\n      jump\t// in\n    tag_239:\n        /* \"#utility.yul\":10189:10213   */\n      swap2\n      pop\n        /* \"#utility.yul\":10227:10246   */\n      tag_240\n        /* \"#utility.yul\":10244:10245   */\n      dup4\n        /* \"#utility.yul\":10227:10246   */\n      tag_132\n      jump\t// in\n    tag_240:\n        /* \"#utility.yul\":10222:10246   */\n      swap3\n      pop\n        /* \"#utility.yul\":10281:10282   */\n      dup3\n        /* \"#utility.yul\":10278:10279   */\n      dup3\n        /* \"#utility.yul\":10274:10283   */\n      mul\n        /* \"#utility.yul\":10303:10332   */\n      tag_241\n        /* \"#utility.yul\":10320:10331   */\n      dup2\n        /* \"#utility.yul\":10303:10332   */\n      tag_132\n      jump\t// in\n    tag_241:\n        /* \"#utility.yul\":10292:10332   */\n      swap2\n      pop\n        /* \"#utility.yul\":10390:10456   */\n      0x8000000000000000000000000000000000000000000000000000000000000000\n        /* \"#utility.yul\":10387:10388   */\n      dup5\n        /* \"#utility.yul\":10384:10457   */\n      eq\n        /* \"#utility.yul\":10380:10381   */\n      0x00\n        /* \"#utility.yul\":10377:10378   */\n      dup5\n        /* \"#utility.yul\":10373:10382   */\n      slt\n        /* \"#utility.yul\":10369:10458   */\n      and\n        /* \"#utility.yul\":10366:10481   */\n      iszero\n      tag_242\n      jumpi\n        /* \"#utility.yul\":10461:10479   */\n      tag_243\n      tag_127\n      jump\t// in\n    tag_243:\n        /* \"#utility.yul\":10366:10481   */\n    tag_242:\n        /* \"#utility.yul\":10631:10632   */\n      dup3\n        /* \"#utility.yul\":10622:10629   */\n      dup3\n        /* \"#utility.yul\":10617:10633   */\n      sdiv\n        /* \"#utility.yul\":10614:10615   */\n      dup5\n        /* \"#utility.yul\":10611:10634   */\n      eq\n        /* \"#utility.yul\":10591:10592   */\n      dup4\n        /* \"#utility.yul\":10584:10593   */\n      iszero\n        /* \"#utility.yul\":10564:10648   */\n      or\n        /* \"#utility.yul\":10541:10681   */\n      tag_244\n      jumpi\n        /* \"#utility.yul\":10661:10679   */\n      tag_245\n      tag_127\n      jump\t// in\n    tag_245:\n        /* \"#utility.yul\":10541:10681   */\n    tag_244:\n        /* \"#utility.yul\":10179:10688   */\n      pop\n        /* \"#utility.yul\":10132:10688   */\n      swap3\n      swap2\n      pop\n      pop\n      jump\t// out\n\n    auxdata: 0xa264697066735822122003f11c3eac90ea494ec345696666a3e05aaedb54fe6aa5edc617875dbf99225864736f6c63430008180033\n}\n",
				"bytecode": {
					"linkReferences": {},
					"object": "60a060405234801561000f575f80fd5b503373ffffffffffffffffffffffffffffffffffffffff1660808173ffffffffffffffffffffffffffffffffffffffff1681525050608051610d2761006a5f395f81816101a101528181610226015261058b0152610d275ff3fe608060405260043610610073575f3560e01c80636b69a5921161004d5780636b69a59214610105578063b60d42881461012f578063dba6335f14610139578063dc0d3dff1461016357610081565b80633ccfd60b146100895780633e47d6f31461009f57806365372147146100db57610081565b366100815760016002819055005b600280819055005b348015610094575f80fd5b5061009d61019f565b005b3480156100aa575f80fd5b506100c560048036038101906100c091906107c4565b610459565b6040516100d29190610807565b60405180910390f35b3480156100e6575f80fd5b506100ef61046e565b6040516100fc9190610807565b60405180910390f35b348015610110575f80fd5b50610119610474565b6040516101269190610807565b60405180910390f35b610137610481565b005b348015610144575f80fd5b5061014d610589565b60405161015a919061082f565b60405180910390f35b34801561016e575f80fd5b5061018960048036038101906101849190610872565b6105ad565b604051610196919061082f565b60405180910390f35b7f000000000000000000000000000000000000000000000000000000000000000073ffffffffffffffffffffffffffffffffffffffff163373ffffffffffffffffffffffffffffffffffffffff1614610224576040517f251c9d6300000000000000000000000000000000000000000000000000000000815260040160405180910390fd5b7f000000000000000000000000000000000000000000000000000000000000000073ffffffffffffffffffffffffffffffffffffffff163373ffffffffffffffffffffffffffffffffffffffff16146102b2576040517f08c379a00000000000000000000000000000000000000000000000000000000081526004016102a9906108f7565b60405180910390fd5b5f5b5f8054905081101561034e575f8082815481106102d4576102d3610915565b5b905f5260205f20015f9054906101000a900473ffffffffffffffffffffffffffffffffffffffff1690505f60015f8373ffffffffffffffffffffffffffffffffffffffff1673ffffffffffffffffffffffffffffffffffffffff1681526020019081526020015f20819055505080806001019150506102b4565b505f67ffffffffffffffff81111561036957610368610942565b5b6040519080825280602002602001820160405280156103975781602001602082028036833780820191505090505b505f90805190602001906103ac9291906106c4565b505f3373ffffffffffffffffffffffffffffffffffffffff16476040516103d29061099c565b5f6040518083038185875af1925050503d805f811461040c576040519150601f19603f3d011682016040523d82523d5f602084013e610411565b606091505b5050905080610455576040517f08c379a000000000000000000000000000000000000000000000000000000000815260040161044c906109fa565b60405180910390fd5b5f80fd5b6001602052805f5260405f205f915090505481565b60025481565b6802b5e3af16b188000081565b6802b5e3af16b1880000610494346105e7565b10156104d5576040517f08c379a00000000000000000000000000000000000000000000000000000000081526004016104cc90610a62565b60405180910390fd5b5f33908060018154018082558091505060019003905f5260205f20015f9091909190916101000a81548173ffffffffffffffffffffffffffffffffffffffff021916908373ffffffffffffffffffffffffffffffffffffffff1602179055503460015f3373ffffffffffffffffffffffffffffffffffffffff1673ffffffffffffffffffffffffffffffffffffffff1681526020019081526020015f205f8282546105809190610aad565b92505081905550565b7f000000000000000000000000000000000000000000000000000000000000000081565b5f81815481106105bb575f80fd5b905f5260205f20015f915054906101000a900473ffffffffffffffffffffffffffffffffffffffff1681565b5f806105f161061f565b90505f670de0b6b3a764000084836106099190610ae0565b6106139190610b4e565b90508092505050919050565b5f8073feeff7c3fb57d18c5c6cdd71e45d2d0b4f9377bf90505f8173ffffffffffffffffffffffffffffffffffffffff1663feaf968c6040518163ffffffff1660e01b815260040160a060405180830381865afa158015610682573d5f803e3d5ffd5b505050506040513d601f19601f820116820180604052508101906106a69190610c04565b5050509150506402540be400816106bd9190610c7b565b9250505090565b828054828255905f5260205f2090810192821561073a579160200282015b82811115610739578251825f6101000a81548173ffffffffffffffffffffffffffffffffffffffff021916908373ffffffffffffffffffffffffffffffffffffffff160217905550916020019190600101906106e2565b5b509050610747919061074b565b5090565b5b80821115610762575f815f90555060010161074c565b5090565b5f80fd5b5f73ffffffffffffffffffffffffffffffffffffffff82169050919050565b5f6107938261076a565b9050919050565b6107a381610789565b81146107ad575f80fd5b50565b5f813590506107be8161079a565b92915050565b5f602082840312156107d9576107d8610766565b5b5f6107e6848285016107b0565b91505092915050565b5f819050919050565b610801816107ef565b82525050565b5f60208201905061081a5f8301846107f8565b92915050565b61082981610789565b82525050565b5f6020820190506108425f830184610820565b92915050565b610851816107ef565b811461085b575f80fd5b50565b5f8135905061086c81610848565b92915050565b5f6020828403121561088757610886610766565b5b5f6108948482850161085e565b91505092915050565b5f82825260208201905092915050565b7f4d757374206265206f776e6572000000000000000000000000000000000000005f82015250565b5f6108e1600d8361089d565b91506108ec826108ad565b602082019050919050565b5f6020820190508181035f83015261090e816108d5565b9050919050565b7f4e487b71000000000000000000000000000000000000000000000000000000005f52603260045260245ffd5b7f4e487b71000000000000000000000000000000000000000000000000000000005f52604160045260245ffd5b5f81905092915050565b50565b5f6109875f8361096f565b915061099282610979565b5f82019050919050565b5f6109a68261097c565b9150819050919050565b7f43616c6c206661696c65640000000000000000000000000000000000000000005f82015250565b5f6109e4600b8361089d565b91506109ef826109b0565b602082019050919050565b5f6020820190508181035f830152610a11816109d8565b9050919050565b7f646964206e6f74206d65657420746865206d696e696d756d20555344000000005f82015250565b5f610a4c601c8361089d565b9150610a5782610a18565b602082019050919050565b5f6020820190508181035f830152610a7981610a40565b9050919050565b7f4e487b71000000000000000000000000000000000000000000000000000000005f52601160045260245ffd5b5f610ab7826107ef565b9150610ac2836107ef565b9250828201905080821115610ada57610ad9610a80565b5b92915050565b5f610aea826107ef565b9150610af5836107ef565b9250828202610b03816107ef565b91508282048414831517610b1a57610b19610a80565b5b5092915050565b7f4e487b71000000000000000000000000000000000000000000000000000000005f52601260045260245ffd5b5f610b58826107ef565b9150610b63836107ef565b925082610b7357610b72610b21565b5b828204905092915050565b5f69ffffffffffffffffffff82169050919050565b610b9c81610b7e565b8114610ba6575f80fd5b50565b5f81519050610bb781610b93565b92915050565b5f819050919050565b610bcf81610bbd565b8114610bd9575f80fd5b50565b5f81519050610bea81610bc6565b92915050565b5f81519050610bfe81610848565b92915050565b5f805f805f60a08688031215610c1d57610c1c610766565b5b5f610c2a88828901610ba9565b9550506020610c3b88828901610bdc565b9450506040610c4c88828901610bf0565b9350506060610c5d88828901610bf0565b9250506080610c6e88828901610ba9565b9150509295509295909350565b5f610c8582610bbd565b9150610c9083610bbd565b9250828202610c9e81610bbd565b91507f800000000000000000000000000000000000000000000000000000000000000084145f84121615610cd557610cd4610a80565b5b8282058414831517610cea57610ce9610a80565b5b509291505056fea264697066735822122003f11c3eac90ea494ec345696666a3e05aaedb54fe6aa5edc617875dbf99225864736f6c63430008180033",
					"opcodes": "PUSH1 0xA0 PUSH1 0x40 MSTORE CALLVALUE DUP1 ISZERO PUSH2 0xF JUMPI PUSH0 DUP1 REVERT JUMPDEST POP CALLER PUSH20 0xFFFFFFFFFFFFFFFFFFFFFFFFFFFFFFFFFFFFFFFF AND PUSH1 0x80 DUP2 PUSH20 0xFFFFFFFFFFFFFFFFFFFFFFFFFFFFFFFFFFFFFFFF AND DUP2 MSTORE POP POP PUSH1 0x80 MLOAD PUSH2 0xD27 PUSH2 0x6A PUSH0 CODECOPY PUSH0 DUP2 DUP2 PUSH2 0x1A1 ADD MSTORE DUP2 DUP2 PUSH2 0x226 ADD MSTORE PUSH2 0x58B ADD MSTORE PUSH2 0xD27 PUSH0 RETURN INVALID PUSH1 0x80 PUSH1 0x40 MSTORE PUSH1 0x4 CALLDATASIZE LT PUSH2 0x73 JUMPI PUSH0 CALLDATALOAD PUSH1 0xE0 SHR DUP1 PUSH4 0x6B69A592 GT PUSH2 0x4D JUMPI DUP1 PUSH4 0x6B69A592 EQ PUSH2 0x105 JUMPI DUP1 PUSH4 0xB60D4288 EQ PUSH2 0x12F JUMPI DUP1 PUSH4 0xDBA6335F EQ PUSH2 0x139 JUMPI DUP1 PUSH4 0xDC0D3DFF EQ PUSH2 0x163 JUMPI PUSH2 0x81 JUMP JUMPDEST DUP1 PUSH4 0x3CCFD60B EQ PUSH2 0x89 JUMPI DUP1 PUSH4 0x3E47D6F3 EQ PUSH2 0x9F JUMPI DUP1 PUSH4 0x65372147 EQ PUSH2 0xDB JUMPI PUSH2 0x81 JUMP JUMPDEST CALLDATASIZE PUSH2 0x81 JUMPI PUSH1 0x1 PUSH1 0x2 DUP2 SWAP1 SSTORE STOP JUMPDEST PUSH1 0x2 DUP1 DUP2 SWAP1 SSTORE STOP JUMPDEST CALLVALUE DUP1 ISZERO PUSH2 0x94 JUMPI PUSH0 DUP1 REVERT JUMPDEST POP PUSH2 0x9D PUSH2 0x19F JUMP JUMPDEST STOP JUMPDEST CALLVALUE DUP1 ISZERO PUSH2 0xAA JUMPI PUSH0 DUP1 REVERT JUMPDEST POP PUSH2 0xC5 PUSH1 0x4 DUP1 CALLDATASIZE SUB DUP2 ADD SWAP1 PUSH2 0xC0 SWAP2 SWAP1 PUSH2 0x7C4 JUMP JUMPDEST PUSH2 0x459 JUMP JUMPDEST PUSH1 0x40 MLOAD PUSH2 0xD2 SWAP2 SWAP1 PUSH2 0x807 JUMP JUMPDEST PUSH1 0x40 MLOAD DUP1 SWAP2 SUB SWAP1 RETURN JUMPDEST CALLVALUE DUP1 ISZERO PUSH2 0xE6 JUMPI PUSH0 DUP1 REVERT JUMPDEST POP PUSH2 0xEF PUSH2 0x46E JUMP JUMPDEST PUSH1 0x40 MLOAD PUSH2 0xFC SWAP2 SWAP1 PUSH2 0x807 JUMP JUMPDEST PUSH1 0x40 MLOAD DUP1 SWAP2 SUB SWAP1 RETURN JUMPDEST CALLVALUE DUP1 ISZERO PUSH2 0x110 JUMPI PUSH0 DUP1 REVERT JUMPDEST POP PUSH2 0x119 PUSH2 0x474 JUMP JUMPDEST PUSH1 0x40 MLOAD PUSH2 0x126 SWAP2 SWAP1 PUSH2 0x807 JUMP JUMPDEST PUSH1 0x40 MLOAD DUP1 SWAP2 SUB SWAP1 RETURN JUMPDEST PUSH2 0x137 PUSH2 0x481 JUMP JUMPDEST STOP JUMPDEST CALLVALUE DUP1 ISZERO PUSH2 0x144 JUMPI PUSH0 DUP1 REVERT JUMPDEST POP PUSH2 0x14D PUSH2 0x589 JUMP JUMPDEST PUSH1 0x40 MLOAD PUSH2 0x15A SWAP2 SWAP1 PUSH2 0x82F JUMP JUMPDEST PUSH1 0x40 MLOAD DUP1 SWAP2 SUB SWAP1 RETURN JUMPDEST CALLVALUE DUP1 ISZERO PUSH2 0x16E JUMPI PUSH0 DUP1 REVERT JUMPDEST POP PUSH2 0x189 PUSH1 0x4 DUP1 CALLDATASIZE SUB DUP2 ADD SWAP1 PUSH2 0x184 SWAP2 SWAP1 PUSH2 0x872 JUMP JUMPDEST PUSH2 0x5AD JUMP JUMPDEST PUSH1 0x40 MLOAD PUSH2 0x196 SWAP2 SWAP1 PUSH2 0x82F JUMP JUMPDEST PUSH1 0x40 MLOAD DUP1 SWAP2 SUB SWAP1 RETURN JUMPDEST PUSH32 0x0 PUSH20 0xFFFFFFFFFFFFFFFFFFFFFFFFFFFFFFFFFFFFFFFF AND CALLER PUSH20 0xFFFFFFFFFFFFFFFFFFFFFFFFFFFFFFFFFFFFFFFF AND EQ PUSH2 0x224 JUMPI PUSH1 0x40 MLOAD PUSH32 0x251C9D6300000000000000000000000000000000000000000000000000000000 DUP2 MSTORE PUSH1 0x4 ADD PUSH1 0x40 MLOAD DUP1 SWAP2 SUB SWAP1 REVERT JUMPDEST PUSH32 0x0 PUSH20 0xFFFFFFFFFFFFFFFFFFFFFFFFFFFFFFFFFFFFFFFF AND CALLER PUSH20 0xFFFFFFFFFFFFFFFFFFFFFFFFFFFFFFFFFFFFFFFF AND EQ PUSH2 0x2B2 JUMPI PUSH1 0x40 MLOAD PUSH32 0x8C379A000000000000000000000000000000000000000000000000000000000 DUP2 MSTORE PUSH1 0x4 ADD PUSH2 0x2A9 SWAP1 PUSH2 0x8F7 JUMP JUMPDEST PUSH1 0x40 MLOAD DUP1 SWAP2 SUB SWAP1 REVERT JUMPDEST PUSH0 JUMPDEST PUSH0 DUP1 SLOAD SWAP1 POP DUP2 LT ISZERO PUSH2 0x34E JUMPI PUSH0 DUP1 DUP3 DUP2 SLOAD DUP2 LT PUSH2 0x2D4 JUMPI PUSH2 0x2D3 PUSH2 0x915 JUMP JUMPDEST JUMPDEST SWAP1 PUSH0 MSTORE PUSH1 0x20 PUSH0 KECCAK256 ADD PUSH0 SWAP1 SLOAD SWAP1 PUSH2 0x100 EXP SWAP1 DIV PUSH20 0xFFFFFFFFFFFFFFFFFFFFFFFFFFFFFFFFFFFFFFFF AND SWAP1 POP PUSH0 PUSH1 0x1 PUSH0 DUP4 PUSH20 0xFFFFFFFFFFFFFFFFFFFFFFFFFFFFFFFFFFFFFFFF AND PUSH20 0xFFFFFFFFFFFFFFFFFFFFFFFFFFFFFFFFFFFFFFFF AND DUP2 MSTORE PUSH1 0x20 ADD SWAP1 DUP2 MSTORE PUSH1 0x20 ADD PUSH0 KECCAK256 DUP2 SWAP1 SSTORE POP POP DUP1 DUP1 PUSH1 0x1 ADD SWAP2 POP POP PUSH2 0x2B4 JUMP JUMPDEST POP PUSH0 PUSH8 0xFFFFFFFFFFFFFFFF DUP2 GT ISZERO PUSH2 0x369 JUMPI PUSH2 0x368 PUSH2 0x942 JUMP JUMPDEST JUMPDEST PUSH1 0x40 MLOAD SWAP1 DUP1 DUP3 MSTORE DUP1 PUSH1 0x20 MUL PUSH1 0x20 ADD DUP3 ADD PUSH1 0x40 MSTORE DUP1 ISZERO PUSH2 0x397 JUMPI DUP2 PUSH1 0x20 ADD PUSH1 0x20 DUP3 MUL DUP1 CALLDATASIZE DUP4 CALLDATACOPY DUP1 DUP3 ADD SWAP2 POP POP SWAP1 POP JUMPDEST POP PUSH0 SWAP1 DUP1 MLOAD SWAP1 PUSH1 0x20 ADD SWAP1 PUSH2 0x3AC SWAP3 SWAP2 SWAP1 PUSH2 0x6C4 JUMP JUMPDEST POP PUSH0 CALLER PUSH20 0xFFFFFFFFFFFFFFFFFFFFFFFFFFFFFFFFFFFFFFFF AND SELFBALANCE PUSH1 0x40 MLOAD PUSH2 0x3D2 SWAP1 PUSH2 0x99C JUMP JUMPDEST PUSH0 PUSH1 0x40 MLOAD DUP1 DUP4 SUB DUP2 DUP6 DUP8 GAS CALL SWAP3 POP POP POP RETURNDATASIZE DUP1 PUSH0 DUP2 EQ PUSH2 0x40C JUMPI PUSH1 0x40 MLOAD SWAP2 POP PUSH1 0x1F NOT PUSH1 0x3F RETURNDATASIZE ADD AND DUP3 ADD PUSH1 0x40 MSTORE RETURNDATASIZE DUP3 MSTORE RETURNDATASIZE PUSH0 PUSH1 0x20 DUP5 ADD RETURNDATACOPY PUSH2 0x411 JUMP JUMPDEST PUSH1 0x60 SWAP2 POP JUMPDEST POP POP SWAP1 POP DUP1 PUSH2 0x455 JUMPI PUSH1 0x40 MLOAD PUSH32 0x8C379A000000000000000000000000000000000000000000000000000000000 DUP2 MSTORE PUSH1 0x4 ADD PUSH2 0x44C SWAP1 PUSH2 0x9FA JUMP JUMPDEST PUSH1 0x40 MLOAD DUP1 SWAP2 SUB SWAP1 REVERT JUMPDEST PUSH0 DUP1 REVERT JUMPDEST PUSH1 0x1 PUSH1 0x20 MSTORE DUP1 PUSH0 MSTORE PUSH1 0x40 PUSH0 KECCAK256 PUSH0 SWAP2 POP SWAP1 POP SLOAD DUP2 JUMP JUMPDEST PUSH1 0x2 SLOAD DUP2 JUMP JUMPDEST PUSH9 0x2B5E3AF16B1880000 DUP2 JUMP JUMPDEST PUSH9 0x2B5E3AF16B1880000 PUSH2 0x494 CALLVALUE PUSH2 0x5E7 JUMP JUMPDEST LT ISZERO PUSH2 0x4D5 JUMPI PUSH1 0x40 MLOAD PUSH32 0x8C379A000000000000000000000000000000000000000000000000000000000 DUP2 MSTORE PUSH1 0x4 ADD PUSH2 0x4CC SWAP1 PUSH2 0xA62 JUMP JUMPDEST PUSH1 0x40 MLOAD DUP1 SWAP2 SUB SWAP1 REVERT JUMPDEST PUSH0 CALLER SWAP1 DUP1 PUSH1 0x1 DUP2 SLOAD ADD DUP1 DUP3 SSTORE DUP1 SWAP2 POP POP PUSH1 0x1 SWAP1 SUB SWAP1 PUSH0 MSTORE PUSH1 0x20 PUSH0 KECCAK256 ADD PUSH0 SWAP1 SWAP2 SWAP1 SWAP2 SWAP1 SWAP2 PUSH2 0x100 EXP DUP2 SLOAD DUP2 PUSH20 0xFFFFFFFFFFFFFFFFFFFFFFFFFFFFFFFFFFFFFFFF MUL NOT AND SWAP1 DUP4 PUSH20 0xFFFFFFFFFFFFFFFFFFFFFFFFFFFFFFFFFFFFFFFF AND MUL OR SWAP1 SSTORE POP CALLVALUE PUSH1 0x1 PUSH0 CALLER PUSH20 0xFFFFFFFFFFFFFFFFFFFFFFFFFFFFFFFFFFFFFFFF AND PUSH20 0xFFFFFFFFFFFFFFFFFFFFFFFFFFFFFFFFFFFFFFFF AND DUP2 MSTORE PUSH1 0x20 ADD SWAP1 DUP2 MSTORE PUSH1 0x20 ADD PUSH0 KECCAK256 PUSH0 DUP3 DUP3 SLOAD PUSH2 0x580 SWAP2 SWAP1 PUSH2 0xAAD JUMP JUMPDEST SWAP3 POP POP DUP2 SWAP1 SSTORE POP JUMP JUMPDEST PUSH32 0x0 DUP2 JUMP JUMPDEST PUSH0 DUP2 DUP2 SLOAD DUP2 LT PUSH2 0x5BB JUMPI PUSH0 DUP1 REVERT JUMPDEST SWAP1 PUSH0 MSTORE PUSH1 0x20 PUSH0 KECCAK256 ADD PUSH0 SWAP2 POP SLOAD SWAP1 PUSH2 0x100 EXP SWAP1 DIV PUSH20 0xFFFFFFFFFFFFFFFFFFFFFFFFFFFFFFFFFFFFFFFF AND DUP2 JUMP JUMPDEST PUSH0 DUP1 PUSH2 0x5F1 PUSH2 0x61F JUMP JUMPDEST SWAP1 POP PUSH0 PUSH8 0xDE0B6B3A7640000 DUP5 DUP4 PUSH2 0x609 SWAP2 SWAP1 PUSH2 0xAE0 JUMP JUMPDEST PUSH2 0x613 SWAP2 SWAP1 PUSH2 0xB4E JUMP JUMPDEST SWAP1 POP DUP1 SWAP3 POP POP POP SWAP2 SWAP1 POP JUMP JUMPDEST PUSH0 DUP1 PUSH20 0xFEEFF7C3FB57D18C5C6CDD71E45D2D0B4F9377BF SWAP1 POP PUSH0 DUP2 PUSH20 0xFFFFFFFFFFFFFFFFFFFFFFFFFFFFFFFFFFFFFFFF AND PUSH4 0xFEAF968C PUSH1 0x40 MLOAD DUP2 PUSH4 0xFFFFFFFF AND PUSH1 0xE0 SHL DUP2 MSTORE PUSH1 0x4 ADD PUSH1 0xA0 PUSH1 0x40 MLOAD DUP1 DUP4 SUB DUP2 DUP7 GAS STATICCALL ISZERO DUP1 ISZERO PUSH2 0x682 JUMPI RETURNDATASIZE PUSH0 DUP1 RETURNDATACOPY RETURNDATASIZE PUSH0 REVERT JUMPDEST POP POP POP POP PUSH1 0x40 MLOAD RETURNDATASIZE PUSH1 0x1F NOT PUSH1 0x1F DUP3 ADD AND DUP3 ADD DUP1 PUSH1 0x40 MSTORE POP DUP2 ADD SWAP1 PUSH2 0x6A6 SWAP2 SWAP1 PUSH2 0xC04 JUMP JUMPDEST POP POP POP SWAP2 POP POP PUSH5 0x2540BE400 DUP2 PUSH2 0x6BD SWAP2 SWAP1 PUSH2 0xC7B JUMP JUMPDEST SWAP3 POP POP POP SWAP1 JUMP JUMPDEST DUP3 DUP1 SLOAD DUP3 DUP3 SSTORE SWAP1 PUSH0 MSTORE PUSH1 0x20 PUSH0 KECCAK256 SWAP1 DUP2 ADD SWAP3 DUP3 ISZERO PUSH2 0x73A JUMPI SWAP2 PUSH1 0x20 MUL DUP3 ADD JUMPDEST DUP3 DUP2 GT ISZERO PUSH2 0x739 JUMPI DUP3 MLOAD DUP3 PUSH0 PUSH2 0x100 EXP DUP2 SLOAD DUP2 PUSH20 0xFFFFFFFFFFFFFFFFFFFFFFFFFFFFFFFFFFFFFFFF MUL NOT AND SWAP1 DUP4 PUSH20 0xFFFFFFFFFFFFFFFFFFFFFFFFFFFFFFFFFFFFFFFF AND MUL OR SWAP1 SSTORE POP SWAP2 PUSH1 0x20 ADD SWAP2 SWAP1 PUSH1 0x1 ADD SWAP1 PUSH2 0x6E2 JUMP JUMPDEST JUMPDEST POP SWAP1 POP PUSH2 0x747 SWAP2 SWAP1 PUSH2 0x74B JUMP JUMPDEST POP SWAP1 JUMP JUMPDEST JUMPDEST DUP1 DUP3 GT ISZERO PUSH2 0x762 JUMPI PUSH0 DUP2 PUSH0 SWAP1 SSTORE POP PUSH1 0x1 ADD PUSH2 0x74C JUMP JUMPDEST POP SWAP1 JUMP JUMPDEST PUSH0 DUP1 REVERT JUMPDEST PUSH0 PUSH20 0xFFFFFFFFFFFFFFFFFFFFFFFFFFFFFFFFFFFFFFFF DUP3 AND SWAP1 POP SWAP2 SWAP1 POP JUMP JUMPDEST PUSH0 PUSH2 0x793 DUP3 PUSH2 0x76A JUMP JUMPDEST SWAP1 POP SWAP2 SWAP1 POP JUMP JUMPDEST PUSH2 0x7A3 DUP2 PUSH2 0x789 JUMP JUMPDEST DUP2 EQ PUSH2 0x7AD JUMPI PUSH0 DUP1 REVERT JUMPDEST POP JUMP JUMPDEST PUSH0 DUP2 CALLDATALOAD SWAP1 POP PUSH2 0x7BE DUP2 PUSH2 0x79A JUMP JUMPDEST SWAP3 SWAP2 POP POP JUMP JUMPDEST PUSH0 PUSH1 0x20 DUP3 DUP5 SUB SLT ISZERO PUSH2 0x7D9 JUMPI PUSH2 0x7D8 PUSH2 0x766 JUMP JUMPDEST JUMPDEST PUSH0 PUSH2 0x7E6 DUP5 DUP3 DUP6 ADD PUSH2 0x7B0 JUMP JUMPDEST SWAP2 POP POP SWAP3 SWAP2 POP POP JUMP JUMPDEST PUSH0 DUP2 SWAP1 POP SWAP2 SWAP1 POP JUMP JUMPDEST PUSH2 0x801 DUP2 PUSH2 0x7EF JUMP JUMPDEST DUP3 MSTORE POP POP JUMP JUMPDEST PUSH0 PUSH1 0x20 DUP3 ADD SWAP1 POP PUSH2 0x81A PUSH0 DUP4 ADD DUP5 PUSH2 0x7F8 JUMP JUMPDEST SWAP3 SWAP2 POP POP JUMP JUMPDEST PUSH2 0x829 DUP2 PUSH2 0x789 JUMP JUMPDEST DUP3 MSTORE POP POP JUMP JUMPDEST PUSH0 PUSH1 0x20 DUP3 ADD SWAP1 POP PUSH2 0x842 PUSH0 DUP4 ADD DUP5 PUSH2 0x820 JUMP JUMPDEST SWAP3 SWAP2 POP POP JUMP JUMPDEST PUSH2 0x851 DUP2 PUSH2 0x7EF JUMP JUMPDEST DUP2 EQ PUSH2 0x85B JUMPI PUSH0 DUP1 REVERT JUMPDEST POP JUMP JUMPDEST PUSH0 DUP2 CALLDATALOAD SWAP1 POP PUSH2 0x86C DUP2 PUSH2 0x848 JUMP JUMPDEST SWAP3 SWAP2 POP POP JUMP JUMPDEST PUSH0 PUSH1 0x20 DUP3 DUP5 SUB SLT ISZERO PUSH2 0x887 JUMPI PUSH2 0x886 PUSH2 0x766 JUMP JUMPDEST JUMPDEST PUSH0 PUSH2 0x894 DUP5 DUP3 DUP6 ADD PUSH2 0x85E JUMP JUMPDEST SWAP2 POP POP SWAP3 SWAP2 POP POP JUMP JUMPDEST PUSH0 DUP3 DUP3 MSTORE PUSH1 0x20 DUP3 ADD SWAP1 POP SWAP3 SWAP2 POP POP JUMP JUMPDEST PUSH32 0x4D757374206265206F776E657200000000000000000000000000000000000000 PUSH0 DUP3 ADD MSTORE POP JUMP JUMPDEST PUSH0 PUSH2 0x8E1 PUSH1 0xD DUP4 PUSH2 0x89D JUMP JUMPDEST SWAP2 POP PUSH2 0x8EC DUP3 PUSH2 0x8AD JUMP JUMPDEST PUSH1 0x20 DUP3 ADD SWAP1 POP SWAP2 SWAP1 POP JUMP JUMPDEST PUSH0 PUSH1 0x20 DUP3 ADD SWAP1 POP DUP2 DUP2 SUB PUSH0 DUP4 ADD MSTORE PUSH2 0x90E DUP2 PUSH2 0x8D5 JUMP JUMPDEST SWAP1 POP SWAP2 SWAP1 POP JUMP JUMPDEST PUSH32 0x4E487B7100000000000000000000000000000000000000000000000000000000 PUSH0 MSTORE PUSH1 0x32 PUSH1 0x4 MSTORE PUSH1 0x24 PUSH0 REVERT JUMPDEST PUSH32 0x4E487B7100000000000000000000000000000000000000000000000000000000 PUSH0 MSTORE PUSH1 0x41 PUSH1 0x4 MSTORE PUSH1 0x24 PUSH0 REVERT JUMPDEST PUSH0 DUP2 SWAP1 POP SWAP3 SWAP2 POP POP JUMP JUMPDEST POP JUMP JUMPDEST PUSH0 PUSH2 0x987 PUSH0 DUP4 PUSH2 0x96F JUMP JUMPDEST SWAP2 POP PUSH2 0x992 DUP3 PUSH2 0x979 JUMP JUMPDEST PUSH0 DUP3 ADD SWAP1 POP SWAP2 SWAP1 POP JUMP JUMPDEST PUSH0 PUSH2 0x9A6 DUP3 PUSH2 0x97C JUMP JUMPDEST SWAP2 POP DUP2 SWAP1 POP SWAP2 SWAP1 POP JUMP JUMPDEST PUSH32 0x43616C6C206661696C6564000000000000000000000000000000000000000000 PUSH0 DUP3 ADD MSTORE POP JUMP JUMPDEST PUSH0 PUSH2 0x9E4 PUSH1 0xB DUP4 PUSH2 0x89D JUMP JUMPDEST SWAP2 POP PUSH2 0x9EF DUP3 PUSH2 0x9B0 JUMP JUMPDEST PUSH1 0x20 DUP3 ADD SWAP1 POP SWAP2 SWAP1 POP JUMP JUMPDEST PUSH0 PUSH1 0x20 DUP3 ADD SWAP1 POP DUP2 DUP2 SUB PUSH0 DUP4 ADD MSTORE PUSH2 0xA11 DUP2 PUSH2 0x9D8 JUMP JUMPDEST SWAP1 POP SWAP2 SWAP1 POP JUMP JUMPDEST PUSH32 0x646964206E6F74206D65657420746865206D696E696D756D2055534400000000 PUSH0 DUP3 ADD MSTORE POP JUMP JUMPDEST PUSH0 PUSH2 0xA4C PUSH1 0x1C DUP4 PUSH2 0x89D JUMP JUMPDEST SWAP2 POP PUSH2 0xA57 DUP3 PUSH2 0xA18 JUMP JUMPDEST PUSH1 0x20 DUP3 ADD SWAP1 POP SWAP2 SWAP1 POP JUMP JUMPDEST PUSH0 PUSH1 0x20 DUP3 ADD SWAP1 POP DUP2 DUP2 SUB PUSH0 DUP4 ADD MSTORE PUSH2 0xA79 DUP2 PUSH2 0xA40 JUMP JUMPDEST SWAP1 POP SWAP2 SWAP1 POP JUMP JUMPDEST PUSH32 0x4E487B7100000000000000000000000000000000000000000000000000000000 PUSH0 MSTORE PUSH1 0x11 PUSH1 0x4 MSTORE PUSH1 0x24 PUSH0 REVERT JUMPDEST PUSH0 PUSH2 0xAB7 DUP3 PUSH2 0x7EF JUMP JUMPDEST SWAP2 POP PUSH2 0xAC2 DUP4 PUSH2 0x7EF JUMP JUMPDEST SWAP3 POP DUP3 DUP3 ADD SWAP1 POP DUP1 DUP3 GT ISZERO PUSH2 0xADA JUMPI PUSH2 0xAD9 PUSH2 0xA80 JUMP JUMPDEST JUMPDEST SWAP3 SWAP2 POP POP JUMP JUMPDEST PUSH0 PUSH2 0xAEA DUP3 PUSH2 0x7EF JUMP JUMPDEST SWAP2 POP PUSH2 0xAF5 DUP4 PUSH2 0x7EF JUMP JUMPDEST SWAP3 POP DUP3 DUP3 MUL PUSH2 0xB03 DUP2 PUSH2 0x7EF JUMP JUMPDEST SWAP2 POP DUP3 DUP3 DIV DUP5 EQ DUP4 ISZERO OR PUSH2 0xB1A JUMPI PUSH2 0xB19 PUSH2 0xA80 JUMP JUMPDEST JUMPDEST POP SWAP3 SWAP2 POP POP JUMP JUMPDEST PUSH32 0x4E487B7100000000000000000000000000000000000000000000000000000000 PUSH0 MSTORE PUSH1 0x12 PUSH1 0x4 MSTORE PUSH1 0x24 PUSH0 REVERT JUMPDEST PUSH0 PUSH2 0xB58 DUP3 PUSH2 0x7EF JUMP JUMPDEST SWAP2 POP PUSH2 0xB63 DUP4 PUSH2 0x7EF JUMP JUMPDEST SWAP3 POP DUP3 PUSH2 0xB73 JUMPI PUSH2 0xB72 PUSH2 0xB21 JUMP JUMPDEST JUMPDEST DUP3 DUP3 DIV SWAP1 POP SWAP3 SWAP2 POP POP JUMP JUMPDEST PUSH0 PUSH10 0xFFFFFFFFFFFFFFFFFFFF DUP3 AND SWAP1 POP SWAP2 SWAP1 POP JUMP JUMPDEST PUSH2 0xB9C DUP2 PUSH2 0xB7E JUMP JUMPDEST DUP2 EQ PUSH2 0xBA6 JUMPI PUSH0 DUP1 REVERT JUMPDEST POP JUMP JUMPDEST PUSH0 DUP2 MLOAD SWAP1 POP PUSH2 0xBB7 DUP2 PUSH2 0xB93 JUMP JUMPDEST SWAP3 SWAP2 POP POP JUMP JUMPDEST PUSH0 DUP2 SWAP1 POP SWAP2 SWAP1 POP JUMP JUMPDEST PUSH2 0xBCF DUP2 PUSH2 0xBBD JUMP JUMPDEST DUP2 EQ PUSH2 0xBD9 JUMPI PUSH0 DUP1 REVERT JUMPDEST POP JUMP JUMPDEST PUSH0 DUP2 MLOAD SWAP1 POP PUSH2 0xBEA DUP2 PUSH2 0xBC6 JUMP JUMPDEST SWAP3 SWAP2 POP POP JUMP JUMPDEST PUSH0 DUP2 MLOAD SWAP1 POP PUSH2 0xBFE DUP2 PUSH2 0x848 JUMP JUMPDEST SWAP3 SWAP2 POP POP JUMP JUMPDEST PUSH0 DUP1 PUSH0 DUP1 PUSH0 PUSH1 0xA0 DUP7 DUP9 SUB SLT ISZERO PUSH2 0xC1D JUMPI PUSH2 0xC1C PUSH2 0x766 JUMP JUMPDEST JUMPDEST PUSH0 PUSH2 0xC2A DUP9 DUP3 DUP10 ADD PUSH2 0xBA9 JUMP JUMPDEST SWAP6 POP POP PUSH1 0x20 PUSH2 0xC3B DUP9 DUP3 DUP10 ADD PUSH2 0xBDC JUMP JUMPDEST SWAP5 POP POP PUSH1 0x40 PUSH2 0xC4C DUP9 DUP3 DUP10 ADD PUSH2 0xBF0 JUMP JUMPDEST SWAP4 POP POP PUSH1 0x60 PUSH2 0xC5D DUP9 DUP3 DUP10 ADD PUSH2 0xBF0 JUMP JUMPDEST SWAP3 POP POP PUSH1 0x80 PUSH2 0xC6E DUP9 DUP3 DUP10 ADD PUSH2 0xBA9 JUMP JUMPDEST SWAP2 POP POP SWAP3 SWAP6 POP SWAP3 SWAP6 SWAP1 SWAP4 POP JUMP JUMPDEST PUSH0 PUSH2 0xC85 DUP3 PUSH2 0xBBD JUMP JUMPDEST SWAP2 POP PUSH2 0xC90 DUP4 PUSH2 0xBBD JUMP JUMPDEST SWAP3 POP DUP3 DUP3 MUL PUSH2 0xC9E DUP2 PUSH2 0xBBD JUMP JUMPDEST SWAP2 POP PUSH32 0x8000000000000000000000000000000000000000000000000000000000000000 DUP5 EQ PUSH0 DUP5 SLT AND ISZERO PUSH2 0xCD5 JUMPI PUSH2 0xCD4 PUSH2 0xA80 JUMP JUMPDEST JUMPDEST DUP3 DUP3 SDIV DUP5 EQ DUP4 ISZERO OR PUSH2 0xCEA JUMPI PUSH2 0xCE9 PUSH2 0xA80 JUMP JUMPDEST JUMPDEST POP SWAP3 SWAP2 POP POP JUMP INVALID LOG2 PUSH5 0x6970667358 0x22 SLT KECCAK256 SUB CALL SHR RETURNDATACOPY 0xAC SWAP1 0xEA BLOBHASH 0x4E 0xC3 GASLIMIT PUSH10 0x6666A3E05AAEDB54FE6A 0xA5 0xED 0xC6 OR DUP8 TSTORE 0xBF SWAP10 0x22 PC PUSH5 0x736F6C6343 STOP ADDMOD XOR STOP CALLER "
				},
				"gasEstimates": {
					"creation": {
						"codeDepositCost": "673400",
						"executionCost": "infinite",
						"totalCost": "infinite"
					},
					"external": {
						"": "22263",
						"MINIMUM_USD()": "325",
						"addressToAmountFunded(address)": "2825",
						"fund()": "infinite",
						"funders(uint256)": "5009",
						"i_owner()": "infinite",
						"result()": "2470",
						"withdraw()": "infinite"
					}
				},
				"methodIdentifiers": {
					"MINIMUM_USD()": "6b69a592",
					"addressToAmountFunded(address)": "3e47d6f3",
					"fund()": "b60d4288",
					"funders(uint256)": "dc0d3dff",
					"i_owner()": "dba6335f",
					"result()": "65372147",
					"withdraw()": "3ccfd60b"
				}
			},
			"storageLayout": {
				"storage": [
					{
						"astId": 62,
						"contract": "FundMe.sol:fundMe",
						"label": "funders",
						"offset": 0,
						"slot": "0",
						"type": "t_array(t_address)dyn_storage"
					},
					{
						"astId": 66,
						"contract": "FundMe.sol:fundMe",
						"label": "addressToAmountFunded",
						"offset": 0,
						"slot": "1",
						"type": "t_mapping(t_address,t_uint256)"
					},
					{
						"astId": 192,
						"contract": "FundMe.sol:fundMe",
						"label": "result",
						"offset": 0,
						"slot": "2",
						"type": "t_uint256"
					}
				],
				"types": {
					"t_address": {
						"encoding": "inplace",
						"label": "address",
						"numberOfBytes": "20"
					},
					"t_array(t_address)dyn_storage": {
						"base": "t_address",
						"encoding": "dynamic_array",
						"label": "address[]",
						"numberOfBytes": "32"
					},
					"t_mapping(t_address,t_uint256)": {
						"encoding": "mapping",
						"key": "t_address",
						"label": "mapping(address => uint256)",
						"numberOfBytes": "32",
						"value": "t_uint256"
					},
					"t_uint256": {
						"encoding": "inplace",
						"label": "uint256",
						"numberOfBytes": "32"
					}
				}
			},
			"userdoc": {
				"kind": "user",
				"methods": {},
				"version": 1
			}
		}
	}
}